:020000040800F2
:10000000C85B0020BD040008590300085B0300081A
:100010005D0300085F0300086103000800000000A2
:10002000000000000000000000000000F1010008D6
:100030006303000800000000350200089535000841
:10004000D7040008D7040008D7040008D704000824
:10005000D7040008D7040008D7040008D704000814
:10006000D7040008D7040008D7040008D704000804
:10007000D7040008D7040008D7040008D7040008F4
:10008000D7040008D7040008D7040008D7040008E4
:10009000D7040008D7040008D7040008D7040008D4
:1000A000D7040008D7040008D7040008D7040008C4
:1000B000D7040008D7040008D7040008D7040008B4
:1000C000D7040008D7040008D7040008D7040008A4
:1000D000D70400081B370008D7040008773A000847
:1000E000D7040008D7040008D7040008D704000884
:1000F000D7040008D7040008D7040008D704000874
:10010000D7040008D7040008D7040008D704000863
:10011000D7040008D7040008D7040008D704000853
:10012000D7040008D7040008D7040008D704000843
:1001300000F002F800F04CF80AA090E8000C8244AD
:100140008344AAF10107DA4501D100F041F8AFF28A
:10015000090EBAE80F0013F0010F18BFFB1A43F0A5
:10016000010318472054000040540000103A24BFF7
:1001700078C878C1FAD8520724BF30C830C144BF0C
:1001800004680C607047000000230024002500264E
:10019000103A28BF78C1FBD8520728BF30C148BFEA
:1001A0000B607047642904F0B585752904F0B285A9
:1001B000632905F09880732905F09D800020704721
:1001C0001FB59DE8030004F0D7FF1FBD10B510BD9B
:1001D00005F0D1F81146FFF7F3FF00F07AF805F0CB
:1001E000EFF803B4FFF7F2FF03BC03F040FA00009E
:1001F000224B19680868B0E8F00F80F30988BFF354
:100200006F8F4FF0000080F311884EF00D0E704795
:100210000000000006480068006880F3088862B6A5
:1002200061B6BFF34F8FBFF36F8F00DF00BF00BF1A
:1002300008ED00E0EFF30980BFF36F8F0F4B1A68F2
:1002400020E9F00F106008B54FF0500080F31188DE
:10025000BFF34F8FBFF36F8F01F052FE4FF00000DE
:1002600080F31188BDE8084019680868B0E8F00F0D
:1002700080F30988BFF36F8F704700BF50000020E4
:10028000EFF30580704700002B4E20244FF4FA75E1
:10029000371F3460284601F067FD3C60284601F0B6
:1002A00063FDF6E71CB502F0DFFF244902200023BE
:1002B000CDE90001322222A1AFF2330001F092FB1E
:1002C0001E48001F006801F0B8FBBDE81C4002F0AA
:1002D000E5BF1CB54FF4407000F010F903F064F96D
:1002E0004FF4E134204603F0CCF903F04BFA2046FA
:1002F00003F070FB03F0F4FA4FF4FA7402E02046C6
:1003000003F088F904F054FA0028F8D10B480821CA
:10031000001D04F09DFA09490120091F0023CDE9C1
:100320000001802209A1AFF2830001F05BFB01F024
:10033000FFFE00201CBD0000140C01400400002042
:100340006C6564305F7461736B0000006170705F96
:100350007461736B000000007047FEE7FEE7FEE784
:10036000FEE770470CB500224C48009201920168EC
:1003700041F4803101604FF4A063016801F4003161
:1003800001910099491C0091019911B90099994274
:10039000F3D10168890333D50121019140490A68ED
:1003A00042F010020A600A6822F003020A600A683A
:1003B00042F002020A604168416041684160416860
:1003C00041F480614160416821F47C1141604168E1
:1003D00041F4E8114160016841F0807101600168F9
:1003E0008901FCD5416821F003014160416841F079
:1003F000020141604168C1F381010229FAD10CBDBB
:1004000001920CBD254810B5016841F00101016061
:100410004168244A114041600168234A114001604B
:10042000016821F480210160416821F4FE014160EE
:100430004FF41F018160FFF795FF1C494FF00060EA
:10044000086010BD154A10B55068194B10F00C012A
:10045000184803D0042901D0082901D0036012E014
:100460005168536801F470114FF0020413F4803F97
:1004700004EB914102D053689B0301D50E4B00E081
:100480000B4B5943016051680A4AC1F30311121D15
:10049000515C0268CA40026010BD000000100240BA
:1004A000002002400000FFF8FFFFF6FE08ED00E02C
:1004B00000127A002800002000093D00094880470A
:1004C00009480047FEE7FEE7FEE7FEE7FEE7FEE736
:1004D000FEE7FEE7FEE7FEE704480549054A064B4E
:1004E000704700000504000831010008C8550020CD
:1004F000C85B0020C8570020C8570020284908437F
:1005000028490860704730B50F23C278017801256B
:10051000F2B1244A126801F1E02102F4E062C2F56E
:10052000E062120AC2F10404D3404278A240847807
:100530001C401443220181F80024007800F01F01C0
:100540008D404009800000F1E020C0F8005130BD2E
:1005500001F01F0085404809800000F1E020C0F84C
:10056000805130BD104A114001430E48001F016008
:1005700070470C4A121D0029116801D0014300E0A8
:100580008143116070474FF0E0210428086903D0CF
:1005900020F004000861704740F00400FAE7000012
:1005A0000000FA050CED00E080FFFF1F8F4910B539
:1005B000884206D10121042000F049FA00210420DC
:1005C0003BE08B49884206D10121082000F03FFA28
:1005D0000021082031E08749884206D101211020FE
:1005E00000F035FA0021102027E08349884206D127
:1005F0000121202000F02BFA002120201DE07F495E
:10060000884206D10121402000F021FA002140203B
:1006100013E07B49884206D10121802000F017FABF
:100620000021802009E0774988420AD18415012100
:10063000204600F00CFA00212046BDE8104000F0F2
:1006400006BA10BD10B50121084600F000FA0021DD
:10065000BDE81040012000F0FAB9F0B5CC780022D6
:1006600004F00F03E40601D58C7823430C784FF097
:100670000F0C14F0FF0F4FF0010E1BD005680E8811
:100680000EFA02F42640A64210D196000CFA06F7A4
:1006900025EA070703FA06F5CE783D43282E02D057
:1006A000482E02D002E0446100E00461521C082A96
:1006B000E5D305600A88FF2A1CD94468002202F1AC
:1006C00008060EFA06F50E882E40AE420ED19600B0
:1006D0000CFA06F7BC4303FA06F7CE783C43282E03
:1006E00000D14561CE78482E00D10561521C082A00
:1006F000E5D34460F0BD4FF6FF71018002218170A7
:100700000421C17070470246002092680A4200D05E
:1007100001207047806880B2704702460020D2688E
:100720000A4200D001207047C06880B27047016162
:100730007047416170470AB101617047416170477C
:10074000C160704741F48032826181618261816958
:10075000806970472C4B10B51A684FF680742240A0
:1007600042EA00100843186010BD2849C86170476C
:10077000F0B5254C002801DAE36900E06368450D17
:100780002E0185B2C0F30157B540C0F30342032FD9
:1007900005D0C6020AD503269640B34307E023F0EE
:1007A0007062636823F07063636002E0AB4343F000
:1007B000706201B12A43002801DAE261F0BD626093
:1007C000F0BD10B58A0721F003040F49120F214430
:1007D0000F238C6893409C438C608B68904003434C
:1007E0008B6010BD0949C1F8DC007047000801406A
:1007F000000C0140001001400014014000180140AD
:10080000001C014000200140000001400000204287
:10081000A548016841F0010101604168A34A114007
:1008200041600168A24A11400160016821F4802101
:100830000160416821F4FE0141604FF41F018160B5
:10084000704799490A6822F480320A600A6822F4E3
:1008500080220A60B0F5803F07D0B0F5802F03D129
:10086000086840F4A02008607047086840F48030B1
:10087000F9E70346002059098B4A01290AD00229C9
:100880000AD0516A03F01F02012393400B4200D0AB
:10089000012070471168F5E7116AF3E718B50020E9
:1008A0004FF4A06400903120FFF7E3FF0099491C4A
:1008B0000091A14201D00028F5D03120FFF7D9FFE7
:1008C000002800D0012018BD774A116821F0F801F6
:1008D00041EAC00010607047764908607047724B6B
:1008E0005A68084322F47C121043586070477149DB
:1008F000086670476C4A516821F00301014351605A
:1009000070476948406800F00C007047664A5168BB
:1009100021F0F001014351607047634A516821F4AE
:10092000E0610143516070475F4A516821F46051B2
:1009300041EAC000506070475B4A0029517A01D0FB
:10094000014300E08143517270475A49C1F8D80011
:100950007047554A516821F4404101435160704746
:100960005149002281F8202081F82020012802D05E
:10097000042802D1052081F8200070474E49086004
:10098000704749490A6A02430A6270474A49443932
:100990000860704730B5444A5168484B11F00C016B
:1009A00003D0042901D0082901D0036012E0516866
:1009B000536801F470114FF0020413F4803F04EB0C
:1009C000914102D053689B0301D53D4B00E03B4B66
:1009D0005943016051680F2303EA1111394B5C5CE4
:1009E0000168E14041605468072505EA14241C5D54
:1009F00021FA04F48460546805EAD4241B5DD940CC
:100A0000C1605268032303EA92322E4B1B1F9A5C8B
:100A1000B1FBF2F1016130BD234A0029516901D0D7
:100A2000014300E08143516170471F4A00299169E9
:100A300001D0014300E08143916170471A4A0029C7
:100A4000D16901D0014300E08143D1617047164A6A
:100A50000029D16801D0014300E08143D160704793
:100A6000114A0029116901D0014300E0814311615D
:100A7000704711494039086070470E49C864704793
:100A80000949C87170470848416A41F08071416264
:100A90007047054A0146002092680A4200D00120B2
:100AA0007047014988727047001002400000FFF84B
:100AB000FFFFF6FE000042428004424200127A002C
:100AC00000093D0040000020C44910B588420AD109
:100AD00001218C032046FFF7BAFF2046BDE81040F5
:100AE0000021FFF7B4BFBE49884202D101214C0466
:100AF00010E0BC49884202D101218C040AE0BA49C5
:100B0000884202D10121CC0404E0B84988420AD1CC
:100B100001210C052046FFF7A3FF2046BDE8104049
:100B20000021FFF79DBF10BD30B50446008A85B097
:100B30000D464CF6FF710840E98801432182A089E7
:100B40004EF6F3110840A9882A8911436A890243A5
:100B50001143A181A08A4FF6FF410840A9890143B2
:100B6000A1826846FFF716FF9C48844201D1039892
:100B700000E00298A189090400EBC00101EB00101C
:100B8000296801D5490000E08900B0FBF1F064223A
:100B9000B0FBF2F109010B096FF018056B4300EB94
:100BA0008300A3891D044FF0320306D503EBC00078
:100BB000B0FBF2F000F0070005E003EB0010B0FB23
:100BC000F2F000F00F000843208105B030BD4FF473
:100BD0001651016000218180C18001810C22428177
:100BE0008181704710B5028A4FF2FF031A400B88CB
:100BF0004C8823438C88C9880C43234313430382C6
:100C000010BD0021018041808180C1807047002992
:100C1000818902D041F4005101E021F40051818129
:100C2000704710B5C1F3421301F01F040121A14028
:100C3000012B07D0022B07D01430002A026805D000
:100C40000A4304E00C30F8E71030F6E78A4302600C
:100C500010BD002A828A01D00A4300E08A438282C2
:100C60007047028A22F00F020282028A0A4302823D
:100C70007047828922F40062828182890A438281DC
:100C800070470029818902D041F0020101E021F082
:100C9000020181817047028A22F020020282028AC8
:100CA0000A43028270470029018A02D041F4804140
:100CB00001E021F4804101827047C1F30801818085
:100CC00070478088C0F308007047818941F00101B6
:100CD00081817047028BD2B20283028B42EA0121EA
:100CE00001837047028B02F47F420283028B0A4326
:100CF000028370470029818A02D041F0200101E07F
:100D000021F02001818270470029818A02D041F0C0
:100D1000100101E021F01001818270470029818AD1
:100D200002D041F0080101E021F008018182704702
:100D30000029818902D041F4004101E0C1F30E0194
:100D4000818170470029818A02D041F4006101E06D
:100D500021F4006181827047828A22F0040282823B
:100D6000828A0A43828270470029818A02D041F038
:100D7000020101E021F00201818270470246002059
:100D800012880A4200D001207047C9430180704791
:100D900070B501F01F0501260024C1F3421306FAC5
:100DA00005F2012B0FD0022B0FD0838A4FEA1121BD
:100DB0000088134206FA01F600EA060001D000B1ED
:100DC0000124204670BD8389F0E7038AEEE70A0A12
:100DD00001219140C9430180704700000038014063
:100DE0000044004000480040004C004000500040DB
:100DF00000F108014FF0FF32C0E90112C16001614A
:100E000000210160704700210161704742684A601B
:100E100093688B6093685960916008610168491C10
:100E20000160704730B50C68621C02D000F1080206
:100E300002E0026904E01A4653681D68A542FAD927
:100E400053684B6099608A60516008610168491C71
:100E5000016030BDD0E9013201699A60D0E9012317
:100E60005A604A68824201D182684A600022026167
:100E70000868401E0860704770B50D46040005D133
:100E800040F21B12F2A1F7A003F0FAFE02F0ECF917
:100E9000D4E90F20216802FB001161600021A163E9
:100EA0002168A1600A46D4E90F01401E00FB012120
:100EB000E16021464FF0FF3001F8440F487004F123
:100EC00010004DB1FFF794FF04F12400FFF790FFED
:100ED00002F0E4F9012070BD21690029F8D001F089
:100EE000A3FA0028F4D0E3494FF080500860BFF324
:100EF0004F8FBFF36F8FEBE72DE9F04117460E469A
:100F0000050005D14FF4C472D1A1D6A003F0B8FEFC
:100F1000BEB105FB06F0543002F056FA04000ED0C4
:100F200004F154007EB12060C4E90F56204601212F
:100F3000FFF7A2FF84F8507000212046A164BDE8AD
:100F4000F0810020E7E72460EEE72DE9F041856BB2
:100F5000174604460026026C82B1C7B1E06804F06F
:100F600022F8E168206C091AE1602268914202D2FD
:100F70006168081AE060022F16D017E02068A8B94F
:100F8000606801F062FB0646002060600EE0A06829
:100F900004F009F8216CA0680844A06061688842E8
:100FA00004D32068A06001E005B16D1E6D1CA5632F
:100FB0003046C4E72DE9F3410F4600980026846CC3
:100FC0002CB940F6CE12A2A1A6A003F059FEA06B48
:100FD000E16B884205D340F6CF129DA1A1A003F09A
:100FE0004FFEA06BE16B88420CD294F945503A4613
:100FF00069462046FFF7A9FF0646681C05D06D1C10
:1010000084F845503046BDE8FC81606A0028F9D07C
:1010100004F1240001F008FA0028F3D00126F1E7DA
:101020002DE9F041044602F01FF994F9455004F10E
:10103000240610E0A06C20B100212046FFF7BAFF83
:1010400004E0606A48B1304601F0EEF908B101F001
:10105000A4FA6D1E6DB2002DECDC4FF0FF3684F863
:10106000456002F01BF902F0FFF894F9445004F1D6
:10107000100709E0206948B1384601F0D5F908B1F8
:1010800001F08BFA6D1E6DB2002DF3DC84F8446024
:10109000BDE8F04102F002B92DE9FF4F83B0994657
:1010A0008B4604004FF0000605D140F2D92268A11A
:1010B0006CA003F0E5FDBBF1000F07D1206C28B157
:1010C00040F2DA2262A167A003F0DAFDB9F1020F63
:1010D00008D1E06B012805D040F2DB225CA161A0C1
:1010E00003F0CEFD01F068FA38B9059828B140F256
:1010F000DE2257A15BA003F0C3FD4FF0000A4FF0C2
:101100008057DFF8708102F0AFF8A06BE16B884286
:1011100006D3B9F1020F03D0059800B316B325E04A
:101120004A4659462046FFF710FFA16C21B14946B7
:101130002046FFF73FFF05E0616A19B104F1240082
:1011400001F072F928B1C8F80070BFF34F8FBFF3F8
:101150006F8F02F0A3F8012007B0BDE8F08F02F016
:101160009DF821E0684601F0CEF9012602F096F8DC
:1011700000F09BFD02F078F894F94400401C01D186
:1011800084F844A094F94500401C01D184F845A09E
:1011900002F084F805A9684601F0C6F930B120468E
:1011A000FFF73EFF00F0F3FC0020D5E702F05CF80B
:1011B000A06BE16B884201D1012500E0002502F01F
:1011C0006DF895B104F11000059901F0D4F82046AE
:1011D000FFF726FF00F0DBFC002894D1C8F8007070
:1011E000BFF34F8FBFF36F8F8DE72046FFF718FFD8
:1011F00000F0CDFC87E710B5024600210120FFF783
:101200007BFE041E07D00021416001600B460A46A8
:10121000C160FFF741FF204610BD10B5040005D1A5
:1012200040F241220AA10FA003F02AFD01F0C1F90A
:101230006168884220D1E068401EE06005D100234B
:101240001A4619462046FFF727FF012010BD00006F
:101250002E2E5C4672656552544F535C71756575F0
:10126000652E63004572726F723A25732C25640DEA
:101270000A00000004ED00E00020E7E730B4026C53
:101280000B46002A0BD0C1681144C1604468A142DA
:1012900001D30168C16030BC184603F084BE30BC85
:1012A00070472DE9FF4F83B09B468A4604004FF0FC
:1012B000000607D140F2DC42AFF26C01AFF25C00F5
:1012C00003F0DEFCBAF1000F09D1206C38B140F216
:1012D000DD42AFF28401AFF2740003F0D1FC01F003
:1012E0006BF948B9059838B14FF49C62AFF2A00190
:1012F000AFF2900003F0C4FC4FF000094FF08057AC
:10130000DFF8188601F0B0FFA56B35B351462046D3
:10131000E668FFF7B3FFBBF1000F11D0E660606A2B
:1013200050B104F1240001F07FF828B1C8F8007032
:10133000BFF34F8FBFF36F8F01F0B0FF01200BE7BA
:101340006D1EA563206810B901F02FFA6060206956
:101350000028F1D004F11000E5E7059808B11EB1AE
:1013600006E001F09BFF27E0684601F0CCF801267B
:1013700001F094FF00F099FC01F076FF94F944002D
:10138000401C01D184F8449094F94500401C01D1DF
:1013900084F8459001F082FF05A9684601F0C4F881
:1013A000002820460AD0FFF73BFE00F0F0FB204665
:1013B00000F0A6FA0028A5D00020CDE600F0A0FAA3
:1013C000D8B1206830B901F04FFF606801F0FFF834
:1013D00001F064FF04F12400059900F0CCFF2046E1
:1013E000FFF71EFE00F0D3FB00288BD1C8F8007079
:1013F000BFF34F8FBFF36F8F84E72046FFF710FED8
:1014000000F0C5FB7EE770B50D46040007D14FF430
:101410001E72AFF2C411AFF2B41003F031FC01F050
:10142000C8F86168884204D1E068401CE06001208F
:1014300070BD00232A4619462046FFF732FF0028D8
:10144000F6D0E168491CE16070BD70B50C4605003E
:1014500007D140F2BD22AFF20821AFF2F81003F03D
:101460000FFCAC4207D940F2BE22AFF21C21AFF212
:101470000C2003F005FC022200212846FFF73CFD6A
:10148000002800D0846370BD2DE9F04798461546CA
:101490008946040007D140F29F32AFF24C21AFF2EF
:1014A0003C2003F0EDFBB9F1000F09D1206C38B1FD
:1014B0004FF46872AFF26821AFF2582003F0E0FBFE
:1014C000B8F1020F0AD1E06B012807D040F2A13237
:1014D000AFF28421AFF2742003F0D2FB01F003FFDE
:1014E0005020EFF3118780F31188BFF34F8FBFF3C4
:1014F0006F8FA06BE16B884207D3B8F1020F04D065
:10150000002087F31188BDE8F08794F945604246D2
:1015100049462046FFF719FD701C04D0761C84F85C
:1015200045600120EDE7A06C012620B14146204630
:10153000FFF740FD06E0606A0028F2D004F12400C5
:1015400000F072FF0028ECD0002DEAD02E60E8E712
:101550002DE9F0410D46040007D140F23C42AFF2C4
:101560001031AFF2003003F08BFB206C38B14FF438
:101570008862AFF22431AFF2143003F081FB2068AF
:1015800048B9606838B140F24542AFF23C31AFF241
:101590002C3003F075FB01F0A6FE5020EFF311860E
:1015A00080F31188BFF34F8FBFF36F8FA16BE06B98
:1015B00088421FD994F94500491CA163411C04D0FD
:1015C000401C84F84500012015E0A06C012720B1E3
:1015D00000212046FFF7EEFC06E0606A0028F2D00A
:1015E00004F1240000F020FF0028ECD0002DEAD008
:1015F0002F60E8E7002086F31188A0E42DE9F0478A
:1016000090468946040007D14FF4B462AFF2C0316E
:10161000AFF2B03003F034FBB9F1000F09D1206C08
:1016200038B140F2A152AFF2D831AFF2C83003F076
:1016300027FB01F058FE5020EFF3118780F311884B
:10164000BFF34F8FBFF36F8FA66BF6B194F9445081
:1016500049462046FFF712FE761EA663681C04D09A
:101660006D1C84F84450012010E020690028FAD055
:1016700004F1100000F0D8FE0028F4D0B8F1000FFB
:10168000F1D00121C8F80010EDE7002087F31188A0
:1016900039E72DE9F0410E46040007D140F2FC5233
:1016A000AFF25441AFF2444003F0EAFA4EB9206C75
:1016B00048B140F2FD52AFF26841AFF2584003F03A
:1016C000DFFA206C38B940F2FE52AFF27C41AFF243
:1016D0006C4003F0D5FA01F006FE5020EFF31185BF
:1016E00080F31188BFF34F8FBFF36F8FA06B30B1C2
:1016F00031462046E768FFF7C1FD0120E76085F32A
:1017000011881CE410B5040007D140F22F62AFF23B
:10171000C041AFF2B04003F0B3FA01F0A5FDA46BF5
:1017200001F0BCFD204691E510B5040007D140F260
:101730004162AFF2E441AFF2D44003F0A1FA01F00C
:1017400093FDD4E90E10441A01F0A8FD20467DE572
:1017500010B5040007D140F25162AFF20C51AFF264
:10176000FC4003F08DFAA06B70E56D4A002102EB9E
:10177000C1035B68834206D1002042F8310002EBCE
:10178000C10148607047491C0829F0D3704710B563
:10179000040007D140F25D62AFF24C51AFF23C5011
:1017A00003F06EFA2046FFF7E0FF2046BDE8104048
:1017B00001F075BEC06C7047C164704790F850006E
:1017C000704710B5040007D140F29372AFF2805118
:1017D000AFF2705003F054FAA06B08B1002035E569
:1017E000012033E510B5040007D140F2BA72AFF220
:1017F000A051AFF2905003F043FAA06BE16B884226
:1018000001D1012022E5002020E510B5444B002243
:1018100053F832401CB1521C082AF9D316E543F89C
:10182000321003EBC201486010E510B500243C4AB9
:10183000214602EBC1035B68834202D152F831407A
:1018400002E0491C0829F4D32046FFE470B5154690
:101850000E46044601F008FD94F944100020491C8E
:1018600001D184F8440094F94510491C01D184F851
:10187000450001F013FDA06B28B92A46314604F15A
:10188000240000F0B6FD2046BDE87040FFF7C8BB5D
:1018900000220421FFF730BB70B50D46044601F06D
:1018A000E3FCA06C08B9A06B08B1002401E0A564BA
:1018B000012401F0F3FC204670BD10B50446806C95
:1018C000884201D1A06B08B10020BFE401F0CCFC3C
:1018D0000020A06401F0E2FC0120B7E408B5002379
:1018E0000A4669460093FFF7DCFC009808BD08B57E
:1018F00000210A4600916946FFF780FE009808BD66
:1019000010B5044601F0B0FCA06B20B1002401F03A
:10191000C5FC20469AE40124F9E7000004ED00E04C
:10192000D40000202DE9F041054601F09DFCFE4E5B
:10193000B068401CB0603068FC4F10B1706930B3C3
:101940002BE03560B068012827D1002404EB840027
:1019500007EB8000FFF74CFA641C202CF6D3F44808
:10196000FFF746FAF2481430FFF742FAF048283001
:10197000FFF73EFAEE483C30FFF73AFAEC485030B9
:10198000FFF736FAEA4870631430B06305E0306858
:10199000E96AC06A884200D83560706A0121401C3B
:1019A00070626864E86A326981401143316100EB1A
:1019B000800007EB8000291DFFF728FA01F06EFC7C
:1019C000706900280CD03068E96AC06A884207D282
:1019D000D8494FF080500860BFF34F8FBFF36F8F2F
:1019E000BDE8F0812DE9FF5F8346DDE90E8799466A
:1019F00016468A46900001F0E7FC05001AD05C20EC
:101A000001F0E2FC040012D025630021CDE902417F
:101A1000CDE900874B4632465146584601F087F8DB
:101A20002046FFF77FFF012004B0BDE8F09F284665
:101A300001F035FD4FF0FF30F6E770B5044601F0D8
:101A400013FCB94D04B92C68201DFFF703FA58B9EF
:101A5000E06AB64A00EB800152F8211021B9012159
:101A60008140286988432861A06A18B104F11800F0
:101A7000FFF7F0F9686A401C68622868844208D160
:101A8000AB48211D3C30FFF7C1F96868401C686015
:101A900007E0A868401EA860204601F0A1F801F008
:101AA00092F801F0FBFB6869002812D02868844294
:101AB0000FD1286B28B140F265429FA1A3A003F08B
:101AC000DFF89C494FF080500860BFF34F8FBFF3A1
:101AD0006F8F70BD2DE9F041934F0026386B38B100
:101AE000B869401CB861F86900B10126304677E753
:101AF000FD686D1CFD6011D1786B006828B140F65F
:101B0000D9128DA191A003F0BBF8786BB96B796302
:101B1000B863386A401C386201F055F8B86ADFF8DB
:101B20000C82854209D3786B006880B1786BC068FD
:101B3000C468606885420DD2B8623868C06A00EB3C
:101B4000800158F821000128CDD90126CBE74FF0BC
:101B5000FF30F1E7201DFFF77DF9A06A18B104F10D
:101B60001800FFF777F9E06A01213A6981401143D3
:101B7000396100EB800108EB8100211DFFF746F978
:101B8000E06A3968C96A8842CDD30126CBE72DE9DE
:101B9000F047654D00242746286B28B94FF4FD62B5
:101BA00065A16AA003F06CF801F05EFB286B401E93
:101BB0002863286BF0BBA8685D4928310126C8B3AB
:101BC000DFF868918846D8F80010E9B1D8F80C0021
:101BD000C46804F11800FFF73DF9201DFFF73AF93A
:101BE000E06A2A6906FA00F11143296100EB8001DD
:101BF00009EB8100211DFFF709F9E06A2968C96A2C
:101C00008842E0D3EE61DEE70CB100F0DCFFAC69A6
:101C10003CB1FFF75FFF00B1EE61641EF9D1002017
:101C2000A861E86930B14349012738070860BFF36C
:101C30004F8F00E001E0BFF36F8F01F02FFB3846BC
:101C4000BDE8F0872DE9F041374E0F460446F568B0
:101C50003068001DFFF7FEF838B9306890F82C1096
:101C600001208840316981433161601C08D13FB156
:101C70003168BDE8F0412E485030091DFFF7C6B865
:101C800030682C44AC424460316805D2B06BBDE88A
:101C9000F041091DFFF7C6B8706B091DFFF7C2F8C8
:101CA000B06A844200D2B4629AE61F48016B491CB4
:101CB000016370472DE9F0410E4605004FF0000426
:101CC00005D140F279421CA120A002F0D9FF2EB923
:101CD00040F27A4218A11DA002F0D2FF124F386BD9
:101CE00028B140F27B4214A118A002F0C9FFFFF70F
:101CF000DCFFFA6828688119904202D9884202D82C
:101D000004E0884201D8914200D9012429601CB125
:101D1000881A0021FFF796FFFFF739FF002822D12C
:101D20004FF08050034919E05000002014010020BA
:101D30009403002004ED00E02E2E5C46726565528F
:101D4000544F535C7461736B732E63004572726FF2
:101D5000723A25732C25640D0A0000000860BFF359
:101D60004F8FBFF36F8F3BE610B5040014D0FE49D0
:101D7000096B39B140F2CF42AFF24401AFF2340007
:101D800002F07EFFFFF791FF00212046FFF75AFF88
:101D9000FFF7FDFE002807D1F4494FF0805008609E
:101DA000BFF34F8FBFF36F8F10BD70B5050007D124
:101DB00040F2FB42AFF28001AFF2700002F060FF30
:101DC000E94E3068854201D1002070BD01F04CFA27
:101DD0006C6901F063FA706B844202D0B06B84428C
:101DE00001D1022070BDE248844204D1A86A0028D3
:101DF000F7D1032070BDDE481438844202D00CB104
:101E0000012070BD042070BD10B5044601F02CFA0D
:101E10000CB9D5480468E46A01F040FA204610BDC8
:101E200010B5044601F05FFA5020EFF3118180F302
:101E30001188BFF34F8FBFF36F8F0CB9CA48046886
:101E4000E06A81F3118810BD2DE9F04100260D46AE
:101E50000446202908D34FF4B062AFF22411AFF248
:101E6000141002F00DFF1F2501F0FEF9BE4F04B95A
:101E70003C68E06CA8423FD03968854206D98C4264
:101E800007D03968C96AA94202D902E08C4200D160
:101E90000126E16A8846884200D1E562E564A069CE
:101EA000002802DBC5F12000A061B24D08EB8800DC
:101EB000616905EB8000814215D1201DFEF7CAFF44
:101EC000012120B93A6901FA08F082433A61E06AD7
:101ED0003A6981401143396100EB800005EB8000D5
:101EE000211DFEF793FF3EB1A0494FF080500860DE
:101EF000BFF34F8FBFF36F8FBDE8F04101F0CEB954
:101F000070B5994D286B10B10120E86170BD0020BB
:101F1000E8612869974EB0FA80F0C0F11F0000EB2D
:101F2000800456F8240038B940F6F622AFF2F811D2
:101F3000AFF2E81002F0A4FE06EB840000F1080204
:101F4000416849684160914201D149684160C8686F
:101F5000286070BD70B5044601F086F9824D04B961
:101F60002C68201DFEF776FF58B9E06A814A00EB25
:101F7000800152F8211021B901218140286988434C
:101F80002861A06A18B104F11800FEF763FF211D53
:101F90007748FEF73BFF01F081F9686928B101F04D
:101FA00063F900F010FE01F079F92868844213D13A
:101FB000686990B1286B38B140F25762AFF288215E
:101FC000AFF2782002F05CFE68494FF08050086064
:101FD000BFF34F8FBFF36F8F70BD6548A96800686E
:101FE000884202D10020286070BDBDE8704087E7BC
:101FF00070B50025040007D140F28162AFF2C8211C
:10200000AFF2B82002F03CFE59496069884205D120
:10201000A06A2839884201D000B90125284670BD40
:1020200070B504002BD0504D2868844231D001F0A7
:102030001BF92046FFF7DCFFE8B1201DFEF70AFF81
:10204000E06A01212A69814011432961494900EB75
:10205000800001EB8000211DFEF7D8FEE06A2968B0
:10206000C96A884207D341494FF080500860BFF3E6
:102070004F8FBFF36F8FBDE8704001F00FB940F292
:10208000AB62AFF24C31AFF23C30BDE8704002F0D1
:10209000F7BD70BD2DE9F0410026040007D140F2E4
:1020A000E262AFF26C31AFF25C3002F0E9FD01F0B8
:1020B0001AF95020EFF3118580F31188BFF34F8F89
:1020C000BFF36F8F2046FFF793FFF0B1264F386BB9
:1020D00020B1274804F11801283814E0E06A396873
:1020E000C96A884200D30126201DFEF7B3FEE06ACC
:1020F00001213A698140114339611E4900EB80009A
:1021000001EB8000211DFEF781FE85F3118830462A
:1021100066E4184E4FF08054144D00F06BFD3068AB
:102120000128FAD92C60BFF34F8FBFF36F8FF4E70C
:102130001CB50D4800242C30CDE9004023468222F6
:102140000DA10F48FFF74EFC012803D100F06DFEF2
:1021500001281BD0401C2BD140F28472AFF22841E1
:10216000AFF2184002B00DE05000002004ED00E096
:10217000E40300201401002049444C450000000005
:1021800013210008BDE8104002F07ABD502080F312
:102190001188BFF34F8FBFF36F8FFA484FF0FF31B5
:1021A000816201214161C460BDE81C4001F01AB8A0
:1021B0001CBD502080F31188BFF34F8FBFF36F8F8A
:1021C000F0490020486101F043B8EE48C06870470C
:1021D00010B501F088F8EB48C06810BDE948806888
:1021E000704710B510B104461CB10AE0E548046818
:1021F000FAE740F68C02AFF2C041AFF2B04002F015
:102200003FFD04F1340010BD2DE9F0471E46914614
:102210000C4607000ED0054605F13400C4E9005015
:10222000E86A2061286BE061686CA060207B03286D
:1022300003D00AE0D3480568EEE7FFF736FDA86A49
:1022400008B102202073FFF7A2FC4FF00008E86CF1
:10225000C4E90508052E01D0267303E03846FFF7D0
:10226000A4FD2073B9F1000F0AD00021286B01E012
:10227000401C491C0278A52AFAD088082084DFE493
:10228000A4F82080DCE42DE9F047814608689246F6
:102290000C460025F8B1486801F10806406848601E
:1022A000B04201D140684860D0F80C806068426854
:1022B0006260B24201D151686160606805EBC5019E
:1022C00009EB8101C768534601223846FFF79CFF9E
:1022D0006D1C4745EAD12846B2E42DE9F047174680
:1022E0000A46064600242025FFF7DFFCDFF894822B
:1022F000D8F8080082423AD3DFF88C926D1E05EBC5
:10230000850104EBC40009EB810106EB800001228A
:10231000FFF7B9FF0444002DF0D104EBC40006EB35
:10232000800002224546D8F83410FFF7ACFF044481
:1023300004EBC40006EB80000222A96BFFF7A3FFA9
:10234000044404EBC40006EB800004228F49FFF72D
:102350009AFF04448D4904EBC40006EB800003227D
:102360001431FFF790FF04440FB100203860FFF7ED
:102370000EFC204664E470B50D46040007D140F61B
:102380000632AFF24C61AFF23C6002F079FC7D485E
:10239000016820461831FEF745FD2846BDE870402B
:1023A00001214FE42DE9F04117460E46050007D103
:1023B00040F61732AFF28061AFF2706002F060FC5D
:1023C000704C206B38B940F61B32AFF29461AFF21B
:1023D000846002F055FC216846F000408861216865
:1023E00028461831FEF712FD3846BDE8F0410121BC
:1023F00028E470B514460E46050007D140F6313288
:10240000AFF2CC61AFF2BC6002F03AFC5D4801680B
:1024100028461831FEF7FAFC0CB14FF0FF36214682
:102420003046BDE870400DE42DE9F041C068C46855
:102430003CB940F66132AFF20071AFF2F06002F0E9
:102440001FFC04F118000746FEF704FD4D4D286BF4
:10245000012660B14D4839461438FEF7D7FCE06AD2
:102460002968C96A884212D90120EE611CE4201D46
:10247000FEF7F0FCE06A2A6906FA00F111432961CF
:10248000414900EB800001EB8000211DE5E70020C1
:102490000AE470B53B4D06460C46286B38B940F649
:1024A0009932AFF26C71AFF25C7002F0E9FB44F06C
:1024B00000403060F4683CB940F6A132AFF2887158
:1024C000AFF2787002F0DCFB3046FEF7C3FC201D53
:1024D000FEF7C0FCE06A01262A6906FA00F1114302
:1024E0002961294900EB800001EB8000211DFEF7E6
:1024F0008DFCE06A2968C96A884202D90120EE6130
:1025000070BD002070BD10B5040007D140F6C13287
:10251000AFF2DC71AFF2CC7002F0B2FB1948016A85
:102520002160C068606010BD70B50D46040007D121
:1025300040F6CB32AFF60001AFF2F07002F0A0FB34
:102540003DB940F6CC32AFF61001AFF6000002F014
:1025500097FB00F089FE0B4AD06829684B1C0FD00E
:102560002368126A934202D06268824210D962687C
:10257000801A88420CD2081A28602046FFF7C3FF51
:10258000002406E05000002014010020D0030020A9
:10259000012400F083FE204670BDFF490120C86180
:1025A0007047002800D0806C7047002800D08164FC
:1025B0007047F94800687047F748416919B1006BE6
:1025C00018B100207047012070470220704770B595
:1025D000040039D0F04DE06A2968C96A884233D2D4
:1025E000A069002804DB2868C06AC0F12000A0614F
:1025F000E06AEA4E00EB8000616906EB80008142F0
:102600001FD1201DFEF726FC012150B9E06A00EB26
:10261000800256F8222022B92A6901FA00F082438A
:102620002A612868C06AE0622A69814011432961F1
:1026300000EB800006EB8000211DBDE87040FEF736
:10264000E5BB2868C06AE06270BD70B504004FF059
:10265000000640D0D04D2868844207D040F6C762BB
:10266000AFF62C11AFF61C1002F00AFB206D38B942
:1026700040F6C962AFF64011AFF6301002F000FB31
:10268000206D401E2065E26CE16A914223D010BBB0
:10269000201DFEF7DFFBC149012250B9E06A00EBC3
:1026A000800351F8233023B92B6902FA00F08343E9
:1026B0002B61E06CE062C0F12000A061E06A2B6950
:1026C00082401A432A6100EB800001EB8000211D4B
:1026D000FEF79CFB0126304670BD2DE9FF41002727
:1026E00005460770AC4881680291806800EBC00025
:1026F000800000F069FE06004BD000220299FFF72F
:10270000ECFDCDE9020738463AE000EBC00006EBED
:102710008001087B01280FD002280FD003280FD09A
:1027200004280FD000244968284602F0F9FB284607
:1027300002F01AFC202109E05224F4E74224F2E7D7
:102740005324F0E74424EEE72954401C0F28FBD320
:102750002F540544039800EBC00006EB800082680C
:10276000018CCDE90012036922468DA1284602F0B2
:1027700093FA284602F0F8FB05440398401C0390A6
:1027800002998842C1D304B03046BDE8F04100F060
:1027900086BEBDE8FF81804908680A688069D26A00
:1027A0000968C2F120028A6170477B49086818B144
:1027B0000868026D521C02650868704770B50C46C7
:1027C000064600F051FD744D2868406D80B92968B7
:1027D000012081F858005CB101212046FFF732FA50
:1027E00073494FF080500860BFF34F8FBFF36F8F76
:1027F00000F054FD00F038FD2868446D002034B12D
:1028000016B12968486502E02A68611E5165296889
:1028100081F8580000F042FD204670BD2DE9F041DE
:102820001E4615468846074600F01EFD5A4C206895
:1028300090F85800022814D02068416DB9434165D2
:102840002168012081F858005EB101213046FFF770
:10285000F9F957494FF080500860BFF34F8FBFF32D
:102860006F8F00F01BFD00F0FFFC15B12068406D7C
:102870002860206890F8580001280DD02068416D2C
:1028800021EA0801416501252168002081F85800EE
:1028900000F004FD28463BE40025F5E72DE9F04172
:1028A0001F4690460D4604004FF0010607D141F245
:1028B000FD02AFF67C31AFF66C3002F0E1F900F0CA
:1028C000D3FC0FB1606D386094F85800022184F891
:1028D0005810B8F1050F0ED2DFE808F00D03060C12
:1028E0000A00616D294301E0616D491C616502E0E8
:1028F000022803D06565012802D02AE0002628E0DE
:10290000201DFEF7A7FA244DE06A01212A698140C3
:1029100011432961214900EB800001EB8000211D5A
:10292000FEF774FAA06A38B141F23512AFF6F83109
:10293000AFF6E83002F0A4F9E06A2968C96A884273
:1029400007D91B494FF080500860BFF34F8FBFF38A
:102950006F8F00F0A3FC304688E52DE9F0471F4655
:10296000DDF8209092460D4604004FF0010807D193
:1029700041F26812AFF64041AFF6304002F080F904
:1029800000F0B1FC5020EFF3118680F31188BFF303
:102990004F8FBFF36F8F0DE0500000201401002017
:1029A0000925630925750925750925750D0A000096
:1029B00004ED00E00FB1606D386094F8580002211A
:1029C00084F85810BAF1050F0ED2DFE80AF00D03B3
:1029D000060C0A00616D294301E0616D491C6165C7
:1029E00002E0022803D06565012803D031E04FF0F2
:1029F00000082EE0A06A38B141F2AF12AFF6C8412C
:102A0000AFF6B84002F03CF98D4D286B012778B144
:102A100004F118018B48FEF7F9F9E06A2968C96AE0
:102A2000884216D9B9F1000F12D0C9F8007010E031
:102A3000201DFEF70FFAE06A2A6907FA00F1114338
:102A4000296100EB8001804800EB8100211DE2E755
:102A5000EF6186F31188404611E42DE9F041884684
:102A6000040007D141F2E312AFF63451AFF624501F
:102A700002F006F900F037FC5020EFF3118780F3E5
:102A80001188BFF34F8FBFF36F8F94F85800022166
:102A900084F85810616D491C616501282ED1A06A27
:102AA00038B141F20922AFF67051AFF6605002F032
:102AB000E7F8634D286B012678B104F118016148ED
:102AC000FEF7A4F9E06A2968C96A884216D9B8F104
:102AD000000F12D0C8F8006010E0201DFEF7BAF910
:102AE000E06A2A6906FA00F111432961564900EBB0
:102AF000800001EB8000211DE2E7EE6187F3118881
:102B0000B4E410B558B1044600F0AEFB94F8580098
:102B1000022807D0002400F0C1FB204610BD484821
:102B20000468F1E7002084F858000124F3E72DE958
:102B3000F0470E46DDE90984174682469100994622
:102B4000089DA522206B02F0A5FA6FF00301206B0F
:102B500001EB8701084420F00707780705D040F211
:102B60002B323AA13EA002F08BF800202218315CF3
:102B700082F83410315C11B1401C1028F6D30026C5
:102B800084F84360202D00D31F25E562C4E9135665
:102B9000201DFEF738F904F11800FEF734F924611E
:102BA000C5F120006462A061666584F858604A46F9
:102BB0005146384600F0F9FA2060B8F1000F01D014
:102BC000C8F8004048E71E48416B096829B1416BCD
:102BD000C968C9684968816270474FF0FF31FAE7F8
:102BE00010B50446006B00F05AFC2046BDE81040CA
:102BF00000F055BC70B5134E114D14361CE0FFF7B4
:102C000054F8306820B10024FEF7C1FFA4B901E0F8
:102C10000124F9E700F028FBF068C468201DFEF7E6
:102C200019F9A868401EA8606868401E686000F036
:102C300035FB2046FFF7D4FF68680028DFD170BD60
:102C400050000020BC030020140100202E2E5C4602
:102C500072656552544F535C7461736B732E6300DD
:102C60004572726F723A25732C25640D0A000000BC
:102C700070B500244160F74D0061914206D8D11A29
:102C80008269914206D2011D286907E09A4203D267
:102C9000994201D3012403E0011DE868FEF7C2F860
:102CA000204670BD2DE9FF479946DDF830A09046DB
:102CB0000D4606004FF0000705D14FF4D372E6A190
:102CC000EBA001F0DDFFE34C206880B1CDE90058B6
:102CD0000296062D11DAFFF76FFC02284FF0000371
:102CE00009D0002269462068FEF7D6F9074604B0ED
:102CF0003846BDE8F0875246F4E700234A46694665
:102D0000FEF7C2FBF2E770B586B0D24E53E00198F1
:102D1000002806DADDE90301029A904701980028AD
:102D200049DB039C606910B1201DFEF793F805A8EC
:102D300000F04DF9054601980A283CD2DFE800F082
:102D40000505053B273805053B270298A169034681
:102D500001442A462046FFF78BFF00282BD0616AEA
:102D600020468847E069012825D10020009002987C
:102D7000A1690023421819462046FFF793FFD0B9F6
:102D800040F22132B4A1BAA001F07AFF13E0029818
:102D9000A06128B94FF44E72AFA1B5A001F070FF49
:102DA000A0692B4641191A462046FFF761FF02E051
:102DB000204600F074FB00231A4601A93068FEF794
:102DC00070FA0028A3D106B070BDA24CE06801687B
:102DD00039B1002139B1002000F00BF9FFF793FF62
:102DE000F4E70121F6E7C0680068F5E710B500F0E8
:102DF0003BFA984C2068A0B9A148FDF7F9FFA0481C
:102E00001430FDF7F5FF9E48E06014302061002289
:102E100010210520FEF770F8206010B199A1FEF78F
:102E2000F4FCBDE8104000F039BA1CB50024FFF7EF
:102E3000DDFF8848006868B186491F20091DCDE97B
:102E4000000100234FF4827290A19248FEF7CAFD60
:102E5000040005D140F233127FA185A001F010FFDC
:102E600020461CBD2DE9F0470746994616460D46FB
:102E70002C20DDF820A000F0A7FA040014D0B846FA
:102E80004F46D1462DB94FF4C67283A188A001F0F8
:102E9000F7FEFFF7ABFF04F11801C4F8008081E8EA
:102EA000E002201DFDF7AFFF204622E710B5694C78
:102EB000606828B94FF4E87267A16DA001F0E0FEE8
:102EC000606810BD10B5040005D140F2D91262A1AE
:102ED00067A001F0D5FEA06910BD10B5040005D1B2
:102EE00040F2E3125CA162A001F0CAFE606810BD6E
:102EF00010B5040005D140F2ED1257A15CA001F01D
:102F0000BFFE206810BD10B5040005D140F2DA32D2
:102F100051A157A001F0B4FE00F0A6F9606908B114
:102F2000012400E0002400F0B9F9204610BD10B5DE
:102F3000040005D140F2EF3247A14DA001F0A0FE00
:102F400000F092F9246A00F0A9F9204610BD70B58E
:102F50000D46040005D140F2FF323FA144A001F02C
:102F60008FFE00F081F92562BDE8704000F096B94F
:102F70007FB56FF0010401AE009486E80700354884
:102F80001D4600232A4669460068FEF77DFA04B014
:102F900070BD2DE9FF412F4C074698462068154625
:102FA0000E4628B940F22B422BA131A001F068FE59
:102FB0004FF0FF30CDE90007CDE90265002342461E
:102FC00069462068FEF768F804B0BDE8F08170B586
:102FD0000546FFF7FAF81F4E0446B068844203D254
:102FE00000F070F8012000E0002028602046B46066
:102FF00070BDF8B50D460646FEF757FE6846FFF76A
:10300000E6FF0446009810B1FEF7C1FDF8BD114877
:10301000ADB101690968D9B10025311B2A460068A4
:10302000FEF714FCFEF7B3FD0028EFD124494FF062
:1030300080500860BFF34F8FBFF36F8FF8BDA6427B
:10304000EBD8FEF7A4FD2146304600F06EF8F8BD3F
:103050000125E2E78C0000202E2E5C467265655249
:10306000544F535C74696D6572732E6300000000E9
:103070004572726F723A25732C25640D0A000000A8
:10308000F8030020546D725100000000546D72204E
:1030900053766300CB2D00082E2E5C467265655278
:1030A000544F535C74696D6572732E6300000000A9
:1030B0004572726F723A25732C25640D0A00000068
:1030C00004ED00E0F8B52F4E27E0C068C46805683D
:1030D000201DFDF7BFFE616A20468847E069012890
:1030E0001BD1A0692844A84206D924616060211D33
:1030F000F068FDF797FE10E00020034601460090BF
:103100002A462046FFF7CEFD38B940F29232AFF2A0
:103110007801AFF2640001F0B3FDF06801680029A6
:10312000D3D13169C6E90310F8BDF8B50546154895
:103130000E46C068C068C468201DFDF78BFEE069BC
:10314000012818D1A0692B46411932462046FFF7C5
:103150008FFD80B100200346014600902A4620469C
:10316000FFF7A0FD38B94FF40272AFF2D401AFF20D
:10317000C00001F085FD616A01B02046BDE8F04065
:10318000084700008C00002069484068401C04D0BB
:10319000F42268A172A001F073FD502080F3118821
:1031A000BFF34F8FBFF36F8FFEE710B5031F4FF0D4
:1031B00080741C601B1F21F001011960191F6C4BEA
:1031C0000B60143940380A6010BD6A484FF47A71B8
:1031D0000068B0FBF1F14FF0E020491E416107218A
:1031E000016170471CB5644908780190FF200870A0
:1031F00008788DF800009DF800004D4A00F050005E
:1032000010700720906007E09068401E90609DF865
:10321000000040008DF800009DF800000006F3D487
:10322000107A000200F4E060906001980870534842
:10323000016841F470010160016841F07041016072
:10324000FFF7C3FF00205060FCF7E4FF00201CBD27
:1032500037484068B0F57A7F05D04FF4B57235A194
:103260003FA001F00DBD7047502080F31188BFF3DF
:103270004F8FBFF36F8F2E494868401C486001286C
:103280000BD13E481C38006810F0FF0F05D04FF4FA
:10329000BD7228A132A001F0F3BC704710B5244CD8
:1032A000606828B940F2811222A12DA001F0E8FC4B
:1032B0006068401E606001D180F3118810BD10B5B8
:1032C000502080F31188BFF34F8FBFF36F8FFEF74D
:1032D00001FC20B129494FF080501C3908600020C2
:1032E00080F3118810BD10B5FCF7CAFF104C1028F0
:1032F0000CD300F1E02090F8F0032178884205D249
:103300004FF42A720BA116A001F0BAFC1B48143826
:103310000068A16800F4E060884207D9BDE8104069
:103320004FF42E7203A10EA001F0AABC10BD000044
:10333000A00000202E2E5C4672656552544F535CEF
:10334000706F727461626C655C525644535C41529A
:103350004D5F434D335C706F72742E63000000004C
:103360004572726F723A25732C25640D0A000000B5
:10337000893100082800002000E400E020ED00E092
:1033800030B5744900E011460A688242FBD34B68AD
:103390005C18844203D1406818444860084643687A
:1033A0001C18944209D16B4C103C2468A24209D0ED
:1033B00052681A4442600A6812680260814200D072
:1033C000086030BD0460F9E72DE9F04105460026AC
:1033D000FEF76BFC5F4F103F386808B900F098F8B3
:1033E000F86805424ED1002D4CD0083568070BD047
:1033F00005F00700C0F108000544680704D0BF22AB
:1034000055A15FA001F03CFC002D3BD078688542BF
:1034100038D850490846046801E0214604466068EF
:10342000A84202D220680028F7D13868B846844202
:1034300028D00E682068086060680836401B102895
:103440000ED96719780704D0EC2243A14CA001F0F3
:1034500017FC6068401B786038466560FFF790FF96
:103460006168D8F804004246401AC8F80400D8F849
:103470000830984200D29060D8F80C000143002038
:10348000C4E90001FEF783FB700705D04FF4967284
:1034900031A13BA001F0F4FB3046BDE8F08170B5EE
:1034A00000282BD02B4DA0F10804103D6068E9687E
:1034B000084205D14FF4A07227A131A001F0E0FB32
:1034C000206828B140F2411223A12DA001F0D8FBC1
:1034D0006068E968084211D02268002A0ED188434A
:1034E0006060FEF7E2FB6068696808446860204637
:1034F000FFF746FFBDE87040FEF749BB70BD1548B9
:10350000103840687047134810388068704770471B
:103510001F484FF4A041420706D0C01D1C4920F0AF
:103520000700411AC1F5A0410A4A00230144C2E93B
:1035300000030839103A21F0070111604B600B605D
:103540000B1AC0E9001393604FF000405360D06045
:1035500070470000BC0000202E2E5C46726565524C
:10356000544F535C706F727461626C655C4D656D35
:103570004D616E675C686561705F342E63000000AA
:103580004572726F723A25732C25640D0A00000093
:103590002004002010B5FFF70FF8012803D0BDE884
:1035A0001040FFF78CBE10BD10B50420FCF7EBFFF8
:1035B0002B482C492C4A0068B0FBF1F3B0FBF1F129
:1035C0004FF47A7041431370012050804FF0E02097
:1035D000026942F0020202614161016941F00101A8
:1035E000016110BD70B54FF0E02500216C691E4AE5
:1035F000AB6912785043AA699A42FCD002D2A3EB7D
:10360000020302E0A4EB020633441944134681424C
:10361000F1D370BD70B50446FEF7CEFF01280CD083
:10362000114D6888844203D3B4FBF0F0FEF79CFB95
:103630006888B4FBF0F100FB11444FF47A706043EA
:10364000BDE87040CEE770B5054600244FF47A76A9
:1036500003E03046FFF7C6FF641CAC42F9D370BDEF
:103660002800002040420F00C4000020704770472F
:1036700040490A885206FCD53E4AC1B2121D11804B
:10368000704770B5054686B0012144F20400FDF78D
:10369000CCF94FF40070ADF8100003248DF81240FF
:1036A0001820354E8DF8130004A93046FCF7D5FFDD
:1036B0003015ADF8100004208DF8130004A9304631
:1036C000FCF7CBFF25208DF814008DF815408DF800
:1036D000164001208DF8170005A8FCF714FF002004
:1036E000ADF80400ADF80600ADF80800ADF80C0028
:1036F0000C20204CADF80A00009569462046FDF7E5
:1037000013FA012240F225512046FDF78AFA0121E1
:103710002046FDF77CFA06B070BD70B5154C40F23E
:1037200025512046FDF734FB00280ED02046FDF73A
:10373000C8FA124AC1B21088030406D444044FF0F8
:10374000000306D50A2901D0138070BD40F4004063
:103750000DE00D2909D0C0F30D04094D401C80B2C5
:1037600029551080C728EFD870BD40F480401080E4
:1037700070BD00000038014000080140C800002072
:103780002054002038B501210820FDF74EF92020F3
:10379000ADF8000010208DF803000320104C8DF8C8
:1037A000020069462046FCF758FF0121ADF80010E1
:1037B00069462046FCF751FF0221ADF8001069462A
:1037C0002046FCF74AFF20212046FCF7B0FF0121EC
:1037D0002046FCF7ACFF02212046FCF7A8FF38BDCD
:1037E000000C014010B58021B24801F05BFCB249E9
:1037F0000020088010BDB049088828B14A8890424E
:1038000004D1002008807047012070474880FBE702
:103810002DE9F0410E4605460024A84F0CE015F8AE
:10382000011B3846FDF749FA40213846FDF7A6FA54
:103830000028F9D0641CA4B2B442F0D3BDE8F081F2
:1038400070B514460D46064601F08EFB81B2304637
:10385000FFF7DEFF0EE0FFF7CEFF40B9294695489F
:1038600001F04CFB18B1FFF7BDFF002070BD0A202E
:10387000FFF7D0FE641EA4B2EDD2012070BD30B5BA
:1038800089B00C460546FFF7ADFF22468CA168467D
:1038900001F002FAC8228EA16846FFF7D1FF002886
:1038A00003D121462846FFF7B3FF09B030BD10B55C
:1038B0000446FFF7A0FF58B986A17E4801F01EFB21
:1038C00030B13A2101F0FEFA002800D0401C10BDB2
:1038D0000520FFF79FFE2046641EA4B2E9D210BD6A
:1038E000F8B501210820FDF7A0F810208DF803009D
:1038F00045017A4FADF8005003268DF80260694605
:103900003846FCF7AAFE6C10ADF800408DF8026056
:1039100069463846FCF7A1FE012221463846FCF7ED
:103920000AFF4FF4FA742046FFF774FE012229467D
:103930003846FCF700FF2046FFF76CFEFFF752FF0A
:1039400067A001F09DF902E02046FFF763FEC82260
:1039500065A166A0FFF774FF0028F5D165A001F00E
:103960008FF902E02046FFF755FEC8225EA164A051
:10397000FFF766FF0028F5D165A001F081F902E0AC
:103980002046FFF747FEC82257A164A0FFF758FF63
:103990000028F5D165A001F073F902E02046FFF799
:1039A00039FEC82250A163A0FFF74AFF0028F5D1D5
:1039B0006AA001F065F902E02046FFF72BFEC8225D
:1039C00069A16BA0FFF73CFF0028F5D172A001F0C0
:1039D00057F9F8BD70B5044686B001210820FDF7FF
:1039E00024F801218804FDF729F818208DF8130028
:1039F0004FF48060ADF81000384E03258DF812505A
:103A000004A93046FCF729FE04208DF8130040027B
:103A1000ADF810008DF8125004A93046FCF71DFED9
:103A2000009400240C20ADF80A00244DADF80640A7
:103A3000ADF80C40ADF80840ADF8044069462846A2
:103A4000FDF772F801212846FDF7E1F8012240F266
:103A500025512846FDF7E5F827208DF814000120B0
:103A60008DF817008DF815408DF8164005A8FCF765
:103A70004AFD06B070BD10B5104C40F225512046ED
:103A8000FDF786F9002813D00B4A1088802801D34F
:103A9000002010800948001D0088064B11885854EA
:103AA000491C11802046BDE810402021FDF76DB96A
:103AB00010BD0000E8540020D00000200048004065
:103AC00041542B43495053454E443D25640D0A0053
:103AD0003E0000004950442C00000000000C014052
:103AE00041540D0A000000004F4B000041540D0AE4
:103AF0000D00000043574D4F44450D0A00000000E3
:103B000041542B43574D4F44453D310D0A000000B1
:103B100041542B4357444843500D0A0041542B4312
:103B200057444843503D312C310D0A0043574A4118
:103B3000500D0A0041542B43574A41503D224E61DB
:103B40006E6662756E616E222C227779747377319E
:103B50003233333231220D0A000000004349505302
:103B6000544152540D0A0000434F4E4E45435400F9
:103B700041542B43495053544152543D22544350D5
:103B8000222C22382E3133302E36352E3230222C54
:103B9000313838330D0A000045535038323636205C
:103BA000496E6974204F4B0D0A0000002DE9F04169
:103BB0000446002500680F462E4610B102202073EF
:103BC00015E001202073084601F003F8206000286A
:103BD00008D0C4E9016702E0206846556D1CA06862
:103BE000A842F9D8BDE8F081206846556D1CA06850
:103BF000A842F9D866608842F4D22660F2E710B590
:103C00000446007B012802D1206801F011F8002051
:103C100020606060A060207310BD0246012002F0A9
:103C20007F030B70D20908D043F08003401C01F8D9
:103C3000013B0428F3DD4FF0FF307047F0B5044638
:103C4000002001235D05106012E0275C166807F074
:103C50007F0707FB03661660265C360601D4401C0E
:103C6000F0BDDB01AB4202D36FF00100F0BD401CA0
:103C70008842EADB4FF0FF30F0BD38B504460078EB
:103C8000FF210009421E0E2A01D3084638BD032831
:103C9000FCD1002000906A460421601CFFF7CEFF93
:103CA00020440099401C022907D32278D20704D16E
:103CB000028852BA921C8A4201D9FF2038BDFEA167
:103CC000801C01F01BF908B10F2038BD032038BD5E
:103CD0002DE9FF5F9A46934600251046DDF8449093
:103CE0000E9F139C01F040F906B2BBF1000F1FD0EC
:103CF00006F111001FFA80F807B10225109868B18B
:103D000045F0040501F030F9C7B2484601F02CF93E
:103D1000C11901EB0800001D1FFA80F80F9870B15F
:103D2000012807D0022808D0022004B0BDE8F09F87
:103D30000120FAE745F00C0501E045F01405129862
:103D400008B145F02405009860B3019850B345F0E0
:103D5000C005009801F008F90746019801F004F940
:103D6000391801EB0800001D87B239462046FFF7DD
:103D70001DFF2068C0B1394601F094F9D4E9003044
:103D8000411C102261601A54D4E900010144781FDB
:103D9000FFF743FF00B2002808DA2046FFF72FFFA5
:103DA0000520C2E70320C0E70420BEE7616823685E
:103DB0000844411C616000221A54D4E90030421CBE
:103DC000042162601954D4E90070421C4D236260E2
:103DD0003B54D4E90070421C626051233B54D4E947
:103DE0000030471C542267601A54D4E90070431C09
:103DF00063603A54D4E90030421C62601954D4E93B
:103E00000020411C61601554D4E90030411C4FEA88
:103E10001A2261601A54D4E90030421C626003F82F
:103E200000A0D4E90030411C320A61601A54D4E980
:103E30000020411C61601654D4E900010844324658
:103E4000594601F049F8606830446060680736D52B
:103E5000B9F1000F01D10FF26829109801F084F830
:103E600086B2D4E90030411C320A61601A54D4E9A8
:103E70000020411C61601654D4E900010844324618
:103E8000109901F029F8606830446060484601F0FC
:103E90006BF886B2D4E90030411C320A61601A54D2
:103EA000D4E90020411C61601654D4E900010844A3
:103EB0003246494601F010F86068304460602806D8
:103EC00018D5009801F050F886B2D4E90030411CB2
:103ED000320A61601A54D4E90020411C6160165412
:103EE000D4E9000108443246009900F0F5FF60680B
:103EF00030446060680618D5019801F035F885B245
:103F0000D4E90030411C2A0A61601A54D4E9002027
:103F1000411C61601554D4E9000108442A46019906
:103F200000F0DAFF6068284460600020FDE610B50C
:103F300004460221FFF73AFE216861B16068E02380
:103F4000421C62600B54D4E900300022411C6160C5
:103F50001A54104610BD012010BD4178022901D02D
:103F600001207047817819B1012901D0FF207047E5
:103F7000C07870472DE9FF4F81B04FF000059046A3
:103F8000119C0F999A465FEA000BA9462A4608D170
:103F9000012005B0BDE8F08F232816D02B2814D0BF
:103FA0006D1C0298405D0028F6D142F0300709B13F
:103FB00047F0010705EB0A060E98B61C68B1012808
:103FC00005D0022806D00320E3E70220E1E747F00E
:103FD000020701E047F00407B61C98F80000022829
:103FE0001AD0F11C2046FFF7E1FD206848B3F11C10
:103FF00001F058F8D4E90020411C61601754D4E95D
:10400000000101443046FFF708FE00281BDA204675
:10401000FFF7F5FD0520BCE7002018F80010401C54
:104020007D29FAD100F10409AAEB0900311A0091A7
:104030002046C91CFFF7BAFD206810B10099C91CC1
:10404000D6E70420A5E7616823680844411C2A0AD2
:1040500061601A54D4E90020411C61601554D4E910
:10406000000108442A46029900F036FF606828449F
:1040700060600E9959B12368411C4FEA1B226160B0
:104080001A54D4E90030421C626003F800B0B8F161
:10409000000F0ED098F800000228D4E9000108446F
:1040A00010D05246414600F07EFF616801EB0A00E5
:1040B000606000206DE700002463726571000000FD
:1040C000000000004A46414600F06DFF616801EBC8
:1040D0000900EDE77FB50D460120089C0021CDE9E0
:1040E0000204CDE900011E460A46EB1CFDA10A2090
:1040F000FFF740FF10B1012004B070BDD4E90020EB
:10410000411C61601654D4E90030411C2A0A6160E8
:104110001A54D4E90020411C616015540020EBE7DB
:104120002DE9FF5F93460D4604464FF0010900F06C
:104130001BFF0D3000F04DFD5FEA00082FD0224636
:10414000E9A100F0A9FD404600F00EFFC6B27719C4
:10415000FF1D781B00F03DFD040022D002202070DE
:104160004FF0000A84F801A0A67032464146E01CD8
:1041700000F019FFA019290EC170290C0171290A3C
:10418000417185710120CDE9000ACDE9020B3B4662
:104190002246D4A10A20FFF7EDFE20B105E04846F3
:1041A000C3E5404605E04FF00009404600F040FD01
:1041B000204600F03DFDF2E72DE9F8430D460746A5
:1041C0001C4690462F21801D00F07CFE00210091AE
:1041D00050B3461C6A460421781CFFF72FFD2520AA
:1041E00000F0F7FC286008B3252100F05BFF2422D3
:1041F0003146286800F0D7FE009824362C3880B26B
:104200002080401C00F0E5FCC8F8000080B1218847
:10421000491C00F047FF22883146D8F8000000F022
:10422000C2FE0020BDE8F8830120FBE70220F9E789
:10423000286800F0FDFC0320F4E72DE9FF4717464E
:104240008846814600F090FE84B2404600F08CFE25
:104250000026A01D00F0BDFC050025D0A11D00F02A
:1042600021FFA5A02246016829608088A8804946D0
:10427000284600F031FE404600F076FE034600205E
:104280000DF1040A012100908AE883004246294684
:104290000A20FFF76FFE00B10126284600F0C8FC97
:1042A000304604B0BDE8F0870120FAE72DE9F04779
:1042B0004FF00007089C984616468A465FEA0009B8
:1042C0003D4609D10120EDE756F8250018B300F06E
:1042D0004BFE6D1C0744EDB24545F5D308EB480095
:1042E000C519E91D2046AD1CFFF760FC2168A1B18E
:1042F00060688223421C62600B54D4E900010144CF
:104300002846FFF78AFC00B2002808DA2046FFF7AB
:1043100076FC0420C6E70220C4E70320C2E76168F8
:1043200023680844411C4FEA192261601A54D4E9F9
:104330000030421C626003F80090002520E056F82F
:10434000250000F011FE0746020AD4E90030411CA6
:1043500061601A54D4E90020411C61601754D4E90B
:104360000001084456F825103A4600F0B5FD606893
:1043700023683844421C62606D1C03F800A0EDB253
:104380004545DCD300208DE70146FF208A78002ACE
:104390000BD1CA78142A08D1087938B1012805D080
:1043A000022803D0802803D00220704700207047E5
:1043B000012070472DE9F0474FF000071C4690465A
:1043C0000E465FEA00093D4609D101206AE756F82A
:1043D000250010B300F0C8FD6D1C0744EDB2454543
:1043E000F5D307EB4805E91D2046AD1CFFF7DEFBC2
:1043F0002168A1B16068A223421C62600B54D4E919
:10440000000101442846FFF708FC00B2002808DA42
:104410002046FFF7F4FB042044E7022042E7032094
:1044200040E7616823680844411C4FEA1922616033
:104430001A54D4E90030421C626003F80090002551
:104440001CE056F8250000F08FFD0746020AD4E96B
:104450000030411C61601A54D4E90020411C6160A5
:104460001754D4E90001084456F825103A4600F0E4
:1044700033FD60686D1C3844EDB260604545E0D3A3
:1044800000200FE7014601208A78002A03D1C9786D
:104490001E2900D1002070472DE9F84F05460AA8D3
:1044A0000E4690E8800C2878144600F00F0C00208F
:1044B0000090CCF341018AF8001098460CF00809EE
:1044C0006A460421681CFFF7B9FB054400986D1C7F
:1044D000022853D35FEACC7050D1288840BA20809C
:1044E000801C0DE0246470007B2264735F69642289
:1044F0003A222573227D000024637273702F00001E
:10450000009988427CD8AFF25041A81C00F0F6FC1C
:1045100010B10F20BDE8F88F9AF8000020B10128F3
:104520002DD002286CD12AE0B9F1000F68D1208883
:10453000401C00F04EFB3060002861D02188491CEF
:1045400000F0B0FD2288A91C306800F02CFD208806
:104550000099081A801E80B23880401C00F039FB98
:10456000C8F8000038B13988491C00F09BFD3A8832
:104570002088AD1C34E0306800F05AFB40E0208811
:10458000009A811C91423BD8A91C0844BBF1000F42
:10459000008840BAABF8000032D02088401C00F000
:1045A00018FB306060B32188491C00F07BFD228835
:1045B000A91C306800F0F7FC20880099081A001F39
:1045C00080B23880401C00F004FBC8F800000028CE
:1045D000D1D03988491C00F065FD3A8820882D1D0E
:1045E0004119D8F8000000F0DEFC2B21304600F025
:1045F00069FC28B92321304600F064FC002889D0EA
:10460000FF2087E770B50C46054604212046FFF7DA
:10461000CDFA2168B9B160684023421C62600B5436
:10462000D4E90030411C022261601A54D4E9003000
:10463000411C2A0A61601A54D4E90020411C6160BF
:104640001554002070BD012070BD4178022904D1AD
:10465000817811B9C0780A2801D001207047002064
:10466000704770B50C46054604212046FFF79EFAB8
:104670002168B9B160685023421C62600B54D4E9D0
:104680000030411C022261601A54D4E90030411C00
:104690002A0A61601A54D4E90020411C6160155453
:1046A000002070BD012070BD4178022904D18178BD
:1046B00011B9C0780A2801D0012070470020704746
:1046C00070B50C46054604212046FFF76FFA2168B5
:1046D000B9B160686223421C62600B54D4E90030B7
:1046E000411C022261601A54D4E90030411C2A0A9C
:1046F00061601A54D4E90020411C61601554002007
:1047000070BD012070BD4278022A09D18278B2EBD7
:10471000112F05D1C078C9B2884201D1002070475D
:104720000120704770B50C46054604212046FFF76E
:104730003DFA2168B9B160687023421C62600B5475
:10474000D4E90030411C022261601A54D4E90030DF
:10475000411C2A0A61601A54D4E90020411C61609E
:104760001554002070BD012070BD4178022904D18C
:10477000817811B9C0780A2801D001207047002043
:10478000704710B504460221FFF710FA216861B1A5
:104790006068C023421C62600B54D4E900300022E0
:1047A000411C61601A54104610BD012010BD00006C
:1047B00030B58BB0002406940794089401257AA3A1
:1047C0007EA283A185A0099400F05AFA06A8CDE93B
:1047D00004400294039400942B0273A277A17CA05E
:1047E0000194FFF775FA28B188A000F049FA0BB0E0
:1047F000284630BD079881B20698FFF740F8FA20A6
:10480000FFF755F804001DD0FFF737FA022819D139
:104810002046FFF7A2FB062818D2DFE800F00308C5
:104820000A0C0E1082A000F02BFA00250AE085A0E9
:1048300006E08BA004E093A002E09AA000E0A2A012
:1048400000F01EFA06A8FFF7DAF9D0E7A9A0F7E70B
:10485000F0B585B000240E460746019402940394F7
:10486000049406E057F82410A9A000F009FA641C8B
:10487000E4B2B442F6D301A8009033463A46002190
:104880001420FFF713FD002807D1029881B2019888
:10489000FEF7F5FF01A8FFF7B2F905B0F0BD70B55E
:1048A00088B000240D460A46064601460494059445
:1048B00006949DA0079400F0E3F9284600F054FB0D
:1048C000034604A80121CDE9021000942A46019470
:1048D00031460A20FFF74EFB002807D1059881B228
:1048E0000498FEF7CCFF04A8FFF789F908B070BD63
:1048F00070B5064688B000200090019002900390A9
:1049000004900590ADF8180004463046FFF7B5F95D
:10491000054604283FD00F2D1BD04FF0FF34FEF783
:1049200061FF641CE2D03A21049800F0CBFADDE983
:104930000421BDF8183084A000F0A2F90F2D01D099
:10494000032DD3D1059800F073F9049800F070F9A5
:10495000CCE706AB04AA05A93046FFF72DFC0400FE
:10496000DDD1DDE90421BDF8183082A000F088F91E
:10497000DDE904106A46FFF760FC0028CFD186A06D
:1049800000F07EF9019881B20098FEF778FF684642
:10499000FFF735F9C3E73046FFF757FE0028BED1D1
:1049A00083A000F06DF9BAE7532644314935493602
:1049B0003934354E335226343426310050323631B4
:1049C000493547335259334D4349474700000000AA
:1049D0007468696E67666C7900000000454D515837
:1049E0005F4465764C696E6B0D0A2050524F494406
:1049F0003A2025732C09415549463A2025732C0944
:104A000044455649443A25730D0A00005741524E19
:104A10003A094D5154545F5061636B6574436F6E36
:104A20006E656374204661696C65640D0A00000060
:104A3000546970733A09C1ACBDD3B3C9B9A60D0AA4
:104A4000000000005741524E3A09C1ACBDD3CAA77D
:104A5000B0DCA3BAD0ADD2E9B4EDCEF30D0A0000BC
:104A60005741524E3A09C1ACBDD3CAA7B0DCA3BA74
:104A7000B7C7B7A8B5C4636C69656E7469640D0A7D
:104A8000000000005741524E3A09C1ACBDD3CAA73D
:104A9000B0DCA3BAB7FECEF1C6F7CAA7B0DC0D0AE8
:104AA000000000005741524E3A09C1ACBDD3CAA71D
:104AB000B0DCA3BAD3C3BBA7C3FBBBF2C3DCC2EB5E
:104AC000B4EDCEF30D0A00005741524E3A09C1AC85
:104AD000BDD3CAA7B0DCA3BAB7C7B7A8C1B4BDD30A
:104AE00028B1C8C8E7746F6B656EB7C7B7A8290D42
:104AF0000A0000004552523A09C1ACBDD3CAA7B062
:104B0000DCA3BACEB4D6AAB4EDCEF30D0A000000F1
:104B100053756273637269626520546F7069633A9A
:104B20002025730D0A0000005075626C69736820BF
:104B3000546F7069633A2025732C204D73673A20B7
:104B400025730D0A000000007468697320697320E2
:104B5000746573743A2025732C207265713A202590
:104B6000732C207265715F6C656E3A2025640D0AA6
:104B700000000000636D6469643A2025732C207284
:104B800065713A2025732C207265715F6C656E3AF1
:104B90002025640D0A000000546970733A095365BA
:104BA0006E6420436D64526573700D0A000000004E
:104BB000546970733A094D515454205075626C69B0
:104BC00073682053656E64204F4B0D0A000000008F
:104BD000704770B5064600F0B3FA056806F10B00A1
:104BE00020F00704B4429CBF002070BD2B466A68C9
:104BF000BAB11068A04210D304F1080188423CBF4A
:104C00005068586007D35168101941601168091B3A
:104C1000016058601460101D70BD13465268002A70
:104C2000E7D12146284600F093FA0028DED170BD76
:104C300070B50446051F00F083FA0068002C14BF0D
:104C4000446870BD002C18BFAC423CBF204664686D
:104C5000F8D301680A18AA4218BF456003D12A6830
:104C600005461144016028684119A1421CBF6C60CF
:104C700070BD6168696021680844286070BD0000EB
:104C80000FB4044910B503AA029800F039FB10BC18
:104C90005DF814FBCC0000200FB41CB5074B06AA2E
:104CA0007B4469460090059800F0FBFA00206946B5
:104CB00000F00AFB1CBC5DF814FB00002506000098
:104CC00070B50C460546012A05D02878800600D527
:104CD000EA69002302E0012305E05B1C934202D253
:104CE000E05C0028F9D1A869E618C01AA861286A12
:104CF000184428622846AFF3008004E0D5E901217A
:104D000014F8010B9047B442F8D32846AFF3008063
:104D100070BD00002DE9F041064600241068752999
:104D2000314616A510D0AFF30080002802DA4042C9
:104D300013A507E031688A0701D512A502E04907EB
:104D400004D511A5012401E0AFF3008000210A225F
:104D500006F1240709E0B0FBF2FCB0FBF2F302FB22
:104D60001C00303078541846491C0028F3D12346E3
:104D70002A463046BDE8F04100F034BA0000000099
:104D80002D0000002B000000200000002DE9F05F46
:104D9000894604464FF0000ADFF824B1FB44C0F80E
:104DA00020A02046E168884700287DD0252806D02D
:104DB000D4E901219047206A401C2062F1E70025D8
:104DC0005F462046E16888472028064607DB312EEB
:104DD00005D2B81910F8200C08B10543F1E7A8076F
:104DE00001D525F00405C4F81CA00027C4F818A0BC
:104DF0002A2E09D0304600F032FB38B304EB870886
:104E0000303EC8F8186019E059F8041B204604EB3E
:104E100087029161E1688847012F064618D1E06951
:104E2000002820DA25F020051DE0D8F8180000EB56
:104E3000800006EB40003038C8F818002046E168D2
:104E40008847064600F00BFB0028EED1012F0AD060
:104E50002E2E08D12046E16888477F1C0646022F87
:104E600045F02005C4DBA069002803DA404245F084
:104E70000105A061E80701D025F01005A6B1A6F153
:104E80004100192802D8203645F400654A463146CB
:104E9000204625604D46FBF785F960B1012807D013
:104EA000ED1D25F0070000E007E000F1080978E7B4
:104EB00005F1040975E730467AE7206ABDE8F09FFE
:104EC000CC060000401ECAB210F8011F8A4202D070
:104ED0000029F9D10020704710B5431E13F8014F87
:104EE000002CFBD105E011F8014B002C03F8014B1D
:104EF00003D0521EF7D20021197010BD30B50546FF
:104F00000B462A4613F8014B12F8010B08B1A042D8
:104F1000F8D01CB1002802D06D1CF1E7284630BD46
:104F200040EA0103024630B59B0710D14FF001342F
:104F300000E008C208C91D1B9D4315EAC41FF8D034
:104F400013F0FF0102F8011B0DD01B0AF8E711F85E
:104F5000013B002B02F8013B05D011F8013B002B6F
:104F600002F8013BF3D130BD10B5431C02E010F84C
:104F7000011B71B18107FAD14FF0013202C88C1ABE
:104F80008C4314EAC211F9D0C01A0A0603D0C01E1D
:104F900010BDC01A10BD0A0401D0801E10BD090248
:104FA000FCD0401E10BD032A40F2308010F0030CEC
:104FB00000F0158011F8013BBCF1020F624498BF6C
:104FC00011F801CB00F8013B38BF11F8013BA2F109
:104FD000040298BF00F801CB38BF00F8013B11F084
:104FE000030300F02580083AC0F0088051F8043B24
:104FF000083A51F804CBA0E80810F5E7121D5CBF91
:1050000051F8043B40F8043BAFF30080D20724BFC3
:1050100011F8013B11F801CB48BF11F8012B24BF57
:1050200000F8013B00F801CB48BF00F8012B7047A6
:1050300010B5203AC0F00B80B1E81850203AA0E833
:105040001850B1E81850A0E81850BFF4F5AF5FEA67
:10505000027C24BFB1E81850A0E8185044BF18C91A
:1050600018C0BDE810405FEA827C24BF51F8043BC1
:1050700040F8043B08BF7047D20728BF31F8023B15
:1050800048BF11F8012B28BF20F8023B48BF00F8A9
:10509000012B704702F0FF0343EA032242EA024277
:1050A00000F002B84FF000020429C0F0128010F0A6
:1050B000030C00F01B80CCF1040CBCF1020F18BFF4
:1050C00000F8012BA8BF20F8022BA1EB0C0100F087
:1050D0000DB85FEAC17C24BF00F8012B00F8012B5A
:1050E00048BF00F8012B70474FF0000200B513468F
:1050F00094469646203922BFA0E80C50A0E80C50F8
:10510000B1F12001BFF4F7AF090728BFA0E80C50A8
:1051100048BF0CC05DF804EB890028BF40F8042BA1
:1051200008BF704748BF20F8022B11F0804F18BF0E
:1051300000F8012B704770477047704770470000B8
:10514000004870477055002070477047704770479F
:1051500038B504460A4600206946AFF300800028AF
:1051600008BF38BD02460099204600F0DFF8012054
:1051700038BD012000F0F8B8F8B5AFF3008005465F
:1051800000200C46102000BF0646A819A0420DD9E9
:10519000324669460020AFF30080070008BF00F0E8
:1051A000E3F80098A04218BF0546C419FFF7C8FFEE
:1051B00005600746F01D20F007004619284600F05C
:1051C0000AF8B44208BFF8BDA21B31463868BDE8F2
:1051D000F84000F0ABB800210160C0E90110704751
:1051E000102070472DE9F0470D4699469246044637
:1051F00000F124080168880604D5E06921F0100157
:10520000216000E00120A84201DD471B00E00027EB
:10521000A1697A1902EB0900081AA0612078C0067A
:1052200002D42046AFF30080002608E0D4E9012133
:105230001AF806009047206A401C761C20624E45F2
:10524000F4DB2078C0060AD52046AFF3008006E0E4
:10525000D4E9012130209047206A401C2062381E8A
:10526000A7F10107F4DC07E0D4E9012118F80500F3
:105270009047206A401C2062281EA5F10105F3DC3E
:105280002046AFF300802078000602D50220BDE85A
:10529000F0870120FBE7000001694A1C02610878E1
:1052A000704700B58FB0CDE9013100210591054966
:1052B0007944CDE9031011466846FFF767FD0FB04A
:1052C00000BD0000E5FFFFFF0A6802F8010B0A605D
:1052D000704710B5436913B1AFF3008001E0FFF7E9
:1052E000EFFC012010BD127800F124010A700022A9
:1052F0004A700122EDE711684FF0FF32E9E7000044
:10530000074B70B50D467B44FFF7CBFF044628469C
:1053100000F026F810B14FF0FF3070BD204670BD90
:1053200067E3FFFF00487047685500200346406868
:105330008C46002818BF88423CBF03464068F8D31B
:1053400018681844884207D00CF1030020F00700C9
:10535000001D411A521A0146081D0A60FFF768BC79
:10536000007B00F08000704710B500F037F8BDE812
:10537000104000F02EB87546FFF7D4FFAE4605008A
:105380006946534620F00700854618B020B5FBF764
:10539000A3F8BDE820404FF000064FF000074FF0A3
:1053A00000084FF0000B21F00701AC46ACE8C00943
:1053B000ACE8C009ACE8C009ACE8C0098D4670474C
:1053C00010B50446AFF300802046BDE81040FAF760
:1053D00008BF002801D0FEF74AB9704710B5012870
:1053E00005D0002103A000F021F8012010BD09A183
:1053F000F8E7000053494752544D454D3A204F7548
:1054000074206F662068656170206D656D6F7279BC
:10541000000000003A2048656170206D656D6F7274
:105420007920636F727275707465640070B505469B
:105430000C460A2000E06D1CFEF718F935B12878FB
:105440000028F8D102E0641CFEF710F914B12078AE
:105450000028F8D1BDE870400A20FEF707B93038BF
:105460000A2801D20120704700207047040000087C
:105470000000000000000002000100001000000019
:105480002F34342F4431493549363934354E33526F
:105490002F6F74612F676574000000002F34342F64
:1054A0004431493549363934354E33522F66756E9D
:1054B0006374696F6E2D6F6E6C696E652F676574AE
:1054C000000000002F34342F443149354936393437
:1054D000354E33522F70726F70657274792D6F6E06
:1054E0006C696E652F676574000000002F34342FDF
:1054F0004431493549363934354E33522F66756E4D
:105500006374696F6E2F6765740000002F34342F49
:105510004431493549363934354E33522F696E6638
:105520006F2F6765740000002F34342F44314935E4
:1055300049363934354E33522F6E74702F67657487
:10554000000000002F34342F4431493549363934B6
:10555000354E33522F6D6F6E69746F722F6765749D
:10556000000000002F34342F443149354936393496
:10557000354E33522F70726F70657274792F676574
:1055800074000000A455000800000020D4000000B2
:105590006C01000878560008D4000020F45A00007E
:1055A0008801000800000000000000000C55000801
:1055B000805400082855000864550008EC54000881
:1055C000C45400089C5400084455000800A24A0432
:1055D00000000000000000000102030406070809A3
:1055E0000204060800000000010203040102030493
:1055F000060708090000000000000000000000008D
:10560000000000000000000000000000000000009A
:10561000000000000000000000000000000000008A
:10562000000000000000000000000000000000007A
:10563000000000000000000000000000000000006A
:105640000000000000000000AAAAAAAA00000000B2
:10565000000000000000000000000000000000004A
:10566000000000000000000000000000000000003A
:08567000000000000000000032
:0400000508000131BD
:00000001FF
