:020000040800F2
:10000000A85B0020950400083103000833030008B2
:10001000350300083703000839030008000000001A
:10002000000000000000000000000000E9010008DE
:100030003B030008000000002D0200086D35000899
:10004000AF040008AF040008AF040008AF040008C4
:10005000AF040008AF040008AF040008AF040008B4
:10006000AF040008AF040008AF040008AF040008A4
:10007000AF040008AF040008AF040008AF04000894
:10008000AF040008AF040008AF040008AF04000884
:10009000AF040008AF040008AF040008AF04000874
:1000A000AF040008AF040008AF040008AF04000864
:1000B000AF040008AF040008AF040008AF04000854
:1000C000AF040008AF040008AF040008AF04000844
:1000D000AF040008F1360008353A0008AF04000804
:1000E000AF040008AF040008AF040008AF04000824
:1000F000AF040008AF040008AF040008AF04000814
:10010000AF040008AF040008AF040008AF04000803
:10011000AF040008AF040008AF040008AF040008F3
:10012000AF040008AF040008AF040008AF040008E3
:1001300000F002F800F048F80AA090E8000C8244B1
:100140008344AAF10107DA4501D100F03DF8AFF28E
:10015000090EBAE80F0013F0010F18BFFB1A43F0A5
:10016000010318477840000098400000103A24BF6F
:1001700078C878C1FAD8520724BF30C830C144BF0C
:1001800004680C607047000000230024002500264E
:10019000103A28BF78C1FBD8520728BF30C148BFEA
:1001A0000B607047642903F03185752903F02E85B3
:1001B000632903F0AE87732903F0B38700207047EB
:1001C0001FB51FBD10B510BD03F0CAFF1146FFF7E4
:1001D000F7FF00F07AF803F0E8FF03B4FFF7F2FF4F
:1001E00003BC03F02FFA0000224B19680868B0E83E
:1001F000F00F80F30988BFF36F8F4FF0000080F39A
:1002000011884EF00D0E704700000000064800688F
:10021000006880F3088862B661B6BFF34F8FBFF302
:100220006F8F00DF00BF00BF08ED00E0EFF3098033
:10023000BFF36F8F0F4B1A6820E9F00F106008B5FD
:100240004FF0500080F31188BFF34F8FBFF36F8FD3
:1002500001F042FE4FF0000080F31188BDE8084035
:1002600019680868B0E8F00F80F30988BFF36F8F52
:10027000704700BF30000020EFF30580704700009A
:10028000234E20244FF4FA75371F3460284601F0BE
:1002900057FD3C60284601F053FDF6E71CB502F01F
:1002A000CFFF1C4902200023CDE9000132221AA110
:1002B000AFF2330001F082FB1648001F006801F026
:1002C000A8FBBDE81C4002F0D5BF1CB54FF4407040
:1002D00000F000F903F054F94FF4E134204603F044
:1002E000BBF903F039FA204603F055FB03F0E2FABC
:1002F00008490120091F0023CDE90001802209A13E
:10030000AFF2670001F05AFB01F0FEFE00201CBDB9
:10031000140C0140040000206C6564305F7461734C
:100320006B0000006170705F7461736B000000000F
:100330007047FEE7FEE7FEE7FEE770470CB50022D8
:100340004C4800920192016841F4803101604FF401
:10035000A063016801F4003101910099491C0091EA
:10036000019911B900999942F3D10168890333D5F4
:100370000121019140490A6842F010020A600A68AE
:1003800022F003020A600A6842F002020A60416831
:10039000416041684160416841F480614160416869
:1003A00021F47C114160416841F4E8114160016829
:1003B00041F08071016001688901FCD5416821F03C
:1003C00003014160416841F0020141604168C1F3AD
:1003D00081010229FAD10CBD01920CBD254810B54E
:1003E000016841F0010101604168244A1140416007
:1003F0000168234A11400160016821F480210160F5
:10040000416821F4FE0141604FF41F018160FFF754
:1004100095FF1C494FF00060086010BD154A10B5EB
:100420005068194B10F00C01184803D0042901D072
:10043000082901D0036012E05168536801F470117B
:100440004FF0020413F4803F04EB914102D0536853
:100450009B0301D50E4B00E00B4B594301605168E3
:100460000A4AC1F30311121D515C0268CA400260BE
:1004700010BD000000100240002002400000FFF804
:10048000FFFFF6FE08ED00E000127A0008000020F1
:1004900000093D000948804709480047FEE7FEE79C
:1004A000FEE7FEE7FEE7FEE7FEE7FEE7FEE7FEE724
:1004B00004480549054A064B70470000DD03000863
:1004C00031010008A8550020A85B0020A857002093
:1004D000A85700202849084328490860704730B5CC
:1004E0000F23C27801780125F2B1244A126801F184
:1004F000E02102F4E062C2F5E062120AC2F10404F3
:10050000D3404278A24084781C401443220181F8F1
:100510000024007800F01F018D404009800000F1A8
:10052000E020C0F8005130BD01F01F0085404809AF
:10053000800000F1E020C0F8805130BD104A114029
:1005400001430E48001F016070470C4A121D00292C
:10055000116801D0014300E08143116070474FF002
:10056000E0210428086903D020F0040008617047E6
:1005700040F00400FAE700000000FA050CED00E08E
:1005800080FFFF1F8F4910B5884206D1012104204A
:1005900000F049FA002104203BE08B49884206D153
:1005A0000121082000F03FFA0021082031E08749AE
:1005B000884206D10121102000F035FA00211020D8
:1005C00027E08349884206D10121202000F02BFA40
:1005D000002120201DE07F49884206D101214020D2
:1005E00000F021FA0021402013E07B49884206D127
:1005F0000121802000F017FA0021802009E07749CE
:1006000088420AD184150121204600F00CFA00210D
:100610002046BDE8104000F006BA10BD10B501211B
:10062000084600F000FA0021BDE81040012000F06B
:10063000FAB9F0B5CC78002204F00F03E40601D536
:100640008C7823430C784FF00F0C14F0FF0F4FF011
:10065000010E1BD005680E880EFA02F42640A64251
:1006600010D196000CFA06F725EA070703FA06F5FB
:10067000CE783D43282E02D0482E02D002E04461BD
:1006800000E00461521C082AE5D305600A88FF2AAD
:100690001CD94468002202F108060EFA06F50E88FD
:1006A0002E40AE420ED196000CFA06F7BC4303FA78
:1006B00006F7CE783C43282E00D14561CE78482EEF
:1006C00000D10561521C082AE5D34460F0BD4FF605
:1006D000FF710180022181700421C17070470246C0
:1006E000002092680A4200D001207047806880B2E2
:1006F000704702460020D2680A4200D001207047AD
:10070000C06880B2704701617047416170470AB1AB
:100710000161704741617047C160704741F48032A8
:100720008261816182618169806970472C4B10B55B
:100730001A684FF68074224042EA0010084318609D
:1007400010BD2849C8617047F0B5254C002801DA72
:10075000E36900E06368450D2E0185B2C0F30157DF
:10076000B540C0F30342032F05D0C6020AD50326C5
:100770009640B34307E023F07062636823F0706330
:10078000636002E0AB4343F0706201B12A4300288A
:1007900001DAE261F0BD6260F0BD10B58A0721F0B8
:1007A00003040F49120F21440F238C6893409C438C
:1007B0008C608B68904003438B6010BD0949C1F881
:1007C000DC00704700080140000C014000100140AF
:1007D0000014014000180140001C014000200140AD
:1007E0000000014000002042A548016841F00101DD
:1007F00001604168A34A114041600168A24A11406A
:100800000160016821F480210160416821F4FE014A
:1008100041604FF41F018160704799490A6822F4D2
:1008200080320A600A6822F480220A60B0F5803FB4
:1008300007D0B0F5802F03D1086840F4A0200860ED
:100840007047086840F48030F9E7034600205909F2
:100850008B4A01290AD002290AD0516A03F01F02EB
:10086000012393400B4200D0012070471168F5E747
:10087000116AF3E718B500204FF4A064009031200E
:10088000FFF7E3FF0099491C0091A14201D0002825
:10089000F5D03120FFF7D9FF002800D0012018BD86
:1008A000774A116821F0F80141EAC00010607047F2
:1008B000764908607047724B5A68084322F47C12EC
:1008C0001043586070477149086670476C4A516818
:1008D00021F003010143516070476948406800F00E
:1008E0000C007047664A516821F0F00101435160E5
:1008F0007047634A516821F4E061014351607047D9
:100900005F4A516821F4605141EAC000506070476D
:100910005B4A0029517A01D0014300E081435172C2
:1009200070475A49C1F8D8007047554A516821F4B8
:1009300040410143516070475149002281F8202015
:1009400081F82020012802D0042802D1052081F856
:10095000200070474E490860704749490A6A0243BF
:100960000A6270474A4944390860704730B5444AC2
:100970005168484B11F00C0103D0042901D008291B
:1009800001D0036012E05168536801F470114FF018
:10099000020413F4803F04EB914102D053689B039F
:1009A00001D53D4B00E03B4B5943016051680F239B
:1009B00003EA1111394B5C5C0168E1404160546805
:1009C000072505EA14241C5D21FA04F484605468A8
:1009D00005EAD4241B5DD940C1605268032303EAB1
:1009E00092322E4B1B1F9A5CB1FBF2F1016130BDBC
:1009F000234A0029516901D0014300E0814351613C
:100A000070471F4A0029916901D0014300E08143EA
:100A1000916170471A4A0029D16901D0014300E071
:100A20008143D1617047164A0029D16801D0014342
:100A300000E08143D1607047114A0029116901D05B
:100A4000014300E08143116170471149403908605A
:100A500070470E49C86470470949C8717047084813
:100A6000416A41F0807141627047054A01460020A9
:100A700092680A4200D0012070470149887270478D
:100A8000001002400000FFF8FFFFF6FE00004242A7
:100A90008004424200127A0000093D00200000203C
:100AA000C44910B588420AD101218C032046FFF7C2
:100AB000BAFF2046BDE810400021FFF7B4BFBE4991
:100AC000884202D101214C0410E0BC49884202D185
:100AD00001218C040AE0BA49884202D10121CC04E8
:100AE00004E0B84988420AD101210C052046FFF7ED
:100AF000A3FF2046BDE810400021FFF79DBF10BDB9
:100B000030B50446008A85B00D464CF6FF710840AA
:100B1000E98801432182A0894EF6F3110840A98893
:100B20002A8911436A8902431143A181A08A4FF6A1
:100B3000FF410840A9890143A1826846FFF716FFDB
:100B40009C48844201D1039800E00298A1890904DD
:100B500000EBC00101EB0010296801D5490000E05D
:100B60008900B0FBF1F06422B0FBF2F109010B093E
:100B70006FF018056B4300EB8300A3891D044FF051
:100B8000320306D503EBC000B0FBF2F000F0070023
:100B900005E003EB0010B0FBF2F000F00F0008439B
:100BA000208105B030BD4FF41651016000218180D5
:100BB000C18001810C2242818181704710B5028A77
:100BC0004FF2FF031A400B884C8823438C88C98856
:100BD0000C4323431343038210BD00210180418055
:100BE0008180C18070470029818902D041F4005181
:100BF00001E021F400518181704710B5C1F3421327
:100C000001F01F040121A140012B07D0022B07D0C6
:100C10001430002A026805D00A4304E00C30F8E7DB
:100C20001030F6E78A43026010BD002A828A01D0A4
:100C30000A4300E08A4382827047028A22F00F0250
:100C40000282028A0A4302827047828922F4006289
:100C5000828182890A43828170470029818902D07A
:100C600041F0020101E021F0020181817047028A16
:100C700022F020020282028A0A430282704700297F
:100C8000018A02D041F4804101E021F480410182D7
:100C90007047C1F30801818070478088C0F3080065
:100CA0007047818941F0010181817047028BD2B286
:100CB0000283028B42EA012101837047028B02F416
:100CC0007F420283028B0A43028370470029818A94
:100CD00002D041F0200101E021F020018182704723
:100CE0000029818A02D041F0100101E021F01001B9
:100CF000818270470029818A02D041F0080101E019
:100D000021F00801818270470029818902D041F4D5
:100D1000004101E0C1F30E01818170470029818A01
:100D200002D041F4006101E021F40061818270474A
:100D3000828A22F004028282828A0A438282704777
:100D40000029818A02D041F0020101E021F0020174
:100D5000818270470246002012880A4200D001209A
:100D60007047C9430180704770B501F01F05012627
:100D70000024C1F3421306FA05F2012B0FD0022B17
:100D80000FD0838A4FEA11210088134206FA01F638
:100D900000EA060001D000B10124204670BD83891D
:100DA000F0E7038AEEE70A0A01219140C943018076
:100DB00070470000003801400044004000480040F7
:100DC000004C00400050004000F108014FF0FF329D
:100DD000C0E90112C160016100210160704700217A
:100DE0000161704742684A6093688B6093685960FC
:100DF000916008610168491C0160704730B50C685A
:100E0000621C02D000F1080202E0026904E01A4606
:100E100053681D68A542FAD953684B6099608A608F
:100E2000516008610168491C016030BDD0E90132A0
:100E300001699A60D0E901235A604A68824201D16F
:100E400082684A60002202610868401E086070479C
:100E500070B50D46040005D140F21B12F2A1F7A0B7
:100E600002F08AFE02F0ECF9D4E90F20216802FBBF
:100E7000001161600021A1632168A1600A46D4E9E4
:100E80000F01401E00FB0121E16021464FF0FF30C1
:100E900001F8440F487004F110004DB1FFF794FFC2
:100EA00004F12400FFF790FF02F0E4F9012070BD87
:100EB00021690029F8D001F0A3FA0028F4D0E34911
:100EC0004FF080500860BFF34F8FBFF36F8FEBE799
:100ED0002DE9F04117460E46050005D14FF4C472C6
:100EE000D1A1D6A002F048FEBEB105FB06F05430F9
:100EF00002F056FA04000ED004F154007EB12060D6
:100F0000C4E90F5620460121FFF7A2FF84F8507074
:100F100000212046A164BDE8F0810020E7E72460BD
:100F2000EEE72DE9F041856B174604460026026C7A
:100F300082B1C7B1E06802F0A0FFE168206C091A35
:100F4000E1602268914202D26168081AE060022FD3
:100F500016D017E02068A8B9606801F062FB064669
:100F6000002060600EE0A06802F087FF216CA0689E
:100F70000844A0606168884204D32068A06001E052
:100F800005B16D1E6D1CA5633046C4E72DE9F34124
:100F90000F4600980026846C2CB940F6CE12A2A110
:100FA000A6A002F0E9FDA06BE16B884205D340F6F4
:100FB000CF129DA1A1A002F0DFFDA06BE16B8842E2
:100FC0000CD294F945503A4669462046FFF7A9FFEE
:100FD0000646681C05D06D1C84F845503046BDE8B7
:100FE000FC81606A0028F9D004F1240001F008FABD
:100FF0000028F3D00126F1E72DE9F041044602F084
:101000001FF994F9455004F1240610E0A06C20B1BA
:1010100000212046FFF7BAFF04E0606A48B130467D
:1010200001F0EEF908B101F0A4FA6D1E6DB2002DC9
:10103000ECDC4FF0FF3684F8456002F01BF902F05B
:10104000FFF894F9445004F1100709E0206948B111
:10105000384601F0D5F908B101F08BFA6D1E6DB27A
:10106000002DF3DC84F84460BDE8F04102F002B9E1
:101070002DE9FF4F83B099468B4604004FF00006E0
:1010800005D140F2D92268A16CA002F075FDBBF138
:10109000000F07D1206C28B140F2DA2262A167A0CC
:1010A00002F06AFDB9F1020F08D1E06B012805D00A
:1010B00040F2DB225CA161A002F05EFD01F068FA63
:1010C00038B9059828B140F2DE2257A15BA002F0A2
:1010D00053FD4FF0000A4FF08057DFF8708102F0A7
:1010E000AFF8A06BE16B884206D3B9F1020F03D0D1
:1010F000059800B316B325E04A4659462046FFF747
:1011000010FFA16C21B149462046FFF73FFF05E0E3
:10111000616A19B104F1240001F072F928B1C8F82C
:101120000070BFF34F8FBFF36F8F02F0A3F8012061
:1011300007B0BDE8F08F02F09DF821E0684601F0AD
:10114000CEF9012602F096F800F09BFD02F078F847
:1011500094F94400401C01D184F844A094F945005E
:10116000401C01D184F845A002F084F805A9684626
:1011700001F0C6F930B12046FFF73EFF00F0F3FC66
:101180000020D5E702F05CF8A06BE16B884201D14A
:10119000012500E0002502F06DF895B104F1100082
:1011A000059901F0D4F82046FFF726FF00F0DBFC9C
:1011B000002894D1C8F80070BFF34F8FBFF36F8F32
:1011C0008DE72046FFF718FF00F0CDFC87E710B54C
:1011D000024600210120FFF77BFE041E07D00021FC
:1011E000416001600B460A46C160FFF741FF20469F
:1011F00010BD10B5040005D140F241220AA10FA094
:1012000002F0BAFC01F0C1F96168884220D1E068BF
:10121000401EE06005D100231A4619462046FFF71C
:1012200027FF012010BD00002E2E5C46726565521E
:10123000544F535C71756575652E63004572726F0E
:10124000723A25732C25640D0A00000004ED00E0BD
:101250000020E7E730B4026C0B46002A0BD0C168CF
:101260001144C1604468A14201D30168C16030BC2F
:10127000184602F002BE30BC70472DE9FF4F83B024
:101280009B468A4604004FF0000607D140F2DC423C
:10129000AFF26C01AFF25C0002F06EFCBAF1000F2D
:1012A00009D1206C38B140F2DD42AFF28401AFF2D7
:1012B000740002F061FC01F06BF948B9059838B18F
:1012C0004FF49C62AFF2A001AFF2900002F054FC28
:1012D0004FF000094FF08057DFF8188601F0B0FF9B
:1012E000A56B35B351462046E668FFF7B3FFBBF167
:1012F000000F11D0E660606A50B104F1240001F0E3
:101300007FF828B1C8F80070BFF34F8FBFF36F8F1D
:1013100001F0B0FF01200BE76D1EA563206810B936
:1013200001F02FFA606020690028F1D004F110006C
:10133000E5E7059808B11EB106E001F09BFF27E044
:10134000684601F0CCF8012601F094FF00F099FC0A
:1013500001F076FF94F94400401C01D184F84490D8
:1013600094F94500401C01D184F8459001F082FFBA
:1013700005A9684601F0C4F8002820460AD0FFF706
:101380003BFE00F0F0FB204600F0A6FA0028A5D0B6
:101390000020CDE600F0A0FAD8B1206830B901F005
:1013A0004FFF606801F0FFF801F064FF04F12400D2
:1013B000059900F0CCFF2046FFF71EFE00F0D3FB9E
:1013C00000288BD1C8F80070BFF34F8FBFF36F8F29
:1013D00084E72046FFF710FE00F0C5FB7EE770B5FE
:1013E0000D46040007D14FF41E72AFF2C411AFF2E4
:1013F000B41002F0C1FB01F0C8F86168884204D162
:10140000E068401CE060012070BD00232A461946B8
:101410002046FFF732FF0028F6D0E168491CE16062
:1014200070BD70B50C46050007D140F2BD22AFF289
:101430000821AFF2F81002F09FFBAC4207D940F24E
:10144000BE22AFF21C21AFF20C2002F095FB02226B
:1014500000212846FFF73CFD002800D0846370BDC2
:101460002DE9F047984615468946040007D140F219
:101470009F32AFF24C21AFF23C2002F07DFBB9F17C
:10148000000F09D1206C38B14FF46872AFF26821B7
:10149000AFF2582002F070FBB8F1020F0AD1E06BF6
:1014A000012807D040F2A132AFF28421AFF27420BC
:1014B00002F062FB01F003FF5020EFF3118780F38D
:1014C0001188BFF34F8FBFF36F8FA06BE16B884222
:1014D00007D3B8F1020F04D0002087F31188BDE8CC
:1014E000F08794F94560424649462046FFF719FDCA
:1014F000701C04D0761C84F845600120EDE7A06CD8
:10150000012620B141462046FFF740FD06E0606A13
:101510000028F2D004F1240000F072FF0028ECD083
:10152000002DEAD02E60E8E72DE9F0410D460400D9
:1015300007D140F23C42AFF21031AFF2003002F07E
:101540001BFB206C38B14FF48862AFF22431AFF24C
:10155000143002F011FB206848B9606838B140F2DD
:101560004542AFF23C31AFF22C3002F005FB01F006
:10157000A6FE5020EFF3118680F31188BFF34F8F42
:10158000BFF36F8FA16BE06B88421FD994F94500C0
:10159000491CA163411C04D0401C84F84500012073
:1015A00015E0A06C012720B100212046FFF7EEFCDA
:1015B00006E0606A0028F2D004F1240000F020FF69
:1015C0000028ECD0002DEAD02F60E8E7002086F359
:1015D0001188A0E42DE9F04790468946040007D120
:1015E0004FF4B462AFF2C031AFF2B03002F0C4FADF
:1015F000B9F1000F09D1206C38B140F2A152AFF21D
:10160000D831AFF2C83002F0B7FA01F058FE5020DE
:10161000EFF3118780F31188BFF34F8FBFF36F8F04
:10162000A66BF6B194F9445049462046FFF712FEE6
:10163000761EA663681C04D06D1C84F844500120FB
:1016400010E020690028FAD004F1100000F0D8FE64
:101650000028F4D0B8F1000FF1D00121C8F8001033
:10166000EDE7002087F3118839E72DE9F0410E46B8
:10167000040007D140F2FC52AFF25441AFF24440B3
:1016800002F07AFA4EB9206C48B140F2FD52AFF246
:101690006841AFF2584002F06FFA206C38B940F25E
:1016A000FE52AFF27C41AFF26C4002F065FA01F0FD
:1016B00006FE5020EFF3118580F31188BFF34F8FA2
:1016C000BFF36F8FA06B30B131462046E768FFF75C
:1016D000C1FD0120E76085F311881CE410B504000A
:1016E00007D140F22F62AFF2C041AFF2B04002F03A
:1016F00043FA01F0A5FDA46B01F0BCFD204691E585
:1017000010B5040007D140F24162AFF2E441AFF2FC
:10171000D44002F031FA01F093FDD4E90E10441ADE
:1017200001F0A8FD20467DE510B5040007D140F288
:101730005162AFF20C51AFF2FC4002F01DFAA06B07
:1017400070E56D4A002102EBC1035B68834206D15C
:10175000002042F8310002EBC10148607047491C8B
:101760000829F0D3704710B5040007D140F25D623C
:10177000AFF24C51AFF23C5002F0FEF92046FFF7B9
:10178000E0FF2046BDE8104001F075BEC06C704718
:10179000C164704790F85000704710B5040007D13D
:1017A00040F29372AFF28051AFF2705002F0E4F960
:1017B000A06B08B1002035E5012033E510B5040029
:1017C00007D140F2BA72AFF2A051AFF2905002F0DE
:1017D000D3F9A06BE16B884201D1012022E5002002
:1017E00020E510B5444B002253F832401CB1521C86
:1017F000082AF9D316E543F8321003EBC20148601A
:1018000010E510B500243C4A214602EBC1035B6899
:10181000834202D152F8314002E0491C0829F4D336
:101820002046FFE470B515460E46044601F008FD5B
:1018300094F944100020491C01D184F8440094F923
:101840004510491C01D184F8450001F013FDA06B3F
:1018500028B92A46314604F1240000F0B6FD20469E
:10186000BDE87040FFF7C8BB00220421FFF730BB82
:1018700070B50D46044601F0E3FCA06C08B9A06BFE
:1018800008B1002401E0A564012401F0F3FC204626
:1018900070BD10B50446806C884201D1A06B08B1C0
:1018A0000020BFE401F0CCFC0020A06401F0E2FCC9
:1018B0000120B7E408B500230A4669460093FFF704
:1018C000DCFC009808BD08B500210A460091694675
:1018D000FFF780FE009808BD10B5044601F0B0FC8B
:1018E000A06B20B1002401F0C5FC20469AE401243D
:1018F000F9E7000004ED00E0B40000202DE9F0411C
:10190000054601F09DFCFE4EB068401CB06030689A
:10191000FC4F10B1706930B32BE03560B06801281E
:1019200027D1002404EB840007EB8000FFF74CFA7A
:10193000641C202CF6D3F448FFF746FAF248143022
:10194000FFF742FAF0482830FFF73EFAEE483C3005
:10195000FFF73AFAEC485030FFF736FAEA4870637E
:101960001430B06305E03068E96AC06A884200D884
:101970003560706A0121401C70626864E86A3269EF
:1019800081401143316100EB800007EB8000291D8D
:10199000FFF728FA01F06EFC706900280CD030685F
:1019A000E96AC06A884207D2D8494FF0805008607F
:1019B000BFF34F8FBFF36F8FBDE8F0812DE9FF5F5D
:1019C0008346DDE90E87994616468A46900001F067
:1019D000E7FC05001AD05C2001F0E2FC040012D004
:1019E00025630021CDE90241CDE900874B4632460F
:1019F0005146584601F087F82046FFF77FFF012047
:101A000004B0BDE8F09F284601F035FD4FF0FF30EF
:101A1000F6E770B5044601F013FCB94D04B92C6823
:101A2000201DFFF703FA58B9E06AB64A00EB8001BF
:101A300052F8211021B90121814028698843286189
:101A4000A06A18B104F11800FFF7F0F9686A401CA9
:101A500068622868844208D1AB48211D3C30FFF7FA
:101A6000C1F96868401C686007E0A868401EA8606B
:101A7000204601F0A1F801F092F801F0FBFB686943
:101A8000002812D0286884420FD1286B28B140F278
:101A900065429FA1A3A002F06FF89C494FF08050CF
:101AA0000860BFF34F8FBFF36F8F70BD2DE9F0411A
:101AB000934F0026386B38B1B869401CB861F8699B
:101AC00000B10126304677E7FD686D1CFD6011D13D
:101AD000786B006828B140F6D9128DA191A002F070
:101AE0004BF8786BB96B7963B863386A401C38621D
:101AF00001F055F8B86ADFF80C82854209D3786B9B
:101B0000006880B1786BC068C468606885420DD297
:101B1000B8623868C06A00EB800158F821000128DB
:101B2000CDD90126CBE74FF0FF30F1E7201DFFF7BD
:101B30007DF9A06A18B104F11800FFF777F9E06A9F
:101B400001213A6981401143396100EB800108EBC2
:101B50008100211DFFF746F9E06A3968C96A8842A9
:101B6000CDD30126CBE72DE9F047654D002427466C
:101B7000286B28B94FF4FD6265A16AA001F0FCFF53
:101B800001F05EFB286B401E2863286BF0BBA86841
:101B90005D4928310126C8B3DFF868918846D8F836
:101BA0000010E9B1D8F80C00C46804F11800FFF780
:101BB0003DF9201DFFF73AF9E06A2A6906FA00F1BB
:101BC0001143296100EB800109EB8100211DFFF722
:101BD00009F9E06A2968C96A8842E0D3EE61DEE764
:101BE0000CB100F0DCFFAC693CB1FFF75FFF00B166
:101BF000EE61641EF9D10020A861E86930B1434963
:101C0000012738070860BFF34F8F00E001E0BFF302
:101C10006F8F01F02FFB3846BDE8F0872DE9F041CA
:101C2000374E0F460446F5683068001DFFF7FEF892
:101C300038B9306890F82C10012088403169814310
:101C40003161601C08D13FB13168BDE8F0412E48D8
:101C50005030091DFFF7C6B830682C44AC424460D0
:101C6000316805D2B06BBDE8F041091DFFF7C6B879
:101C7000706B091DFFF7C2F8B06A844200D2B462EB
:101C80009AE61F48016B491C016370472DE9F0413A
:101C90000E4605004FF0000405D140F279421CA128
:101CA00020A001F069FF2EB940F27A4218A11DA0D0
:101CB00001F062FF124F386B28B140F27B4214A151
:101CC00018A001F059FFFFF7DCFFFA6828688119B6
:101CD000904202D9884202D804E0884201D8914259
:101CE00000D9012429601CB1881A0021FFF796FF52
:101CF000FFF739FF002822D14FF08050034919E047
:101D000030000020F40000207403002004ED00E007
:101D10002E2E5C4672656552544F535C7461736B32
:101D2000732E63004572726F723A25732C25640D11
:101D30000A0000000860BFF34F8FBFF36F8F3BE6D0
:101D400010B5040014D0FE49096B39B140F2CF42FE
:101D5000AFF24401AFF2340001F00EFFFFF791FF44
:101D600000212046FFF75AFFFFF7FDFE002807D1AC
:101D7000F4494FF080500860BFF34F8FBFF36F8F6F
:101D800010BD70B5050007D140F2FB42AFF28001F3
:101D9000AFF2700001F0F0FEE94E3068854201D1EB
:101DA000002070BD01F04CFA6C6901F063FA706BB1
:101DB000844202D0B06B844201D1022070BDE2485F
:101DC000844204D1A86A0028F7D1032070BDDE4800
:101DD0001438844202D00CB1012070BD042070BDC3
:101DE00010B5044601F02CFA0CB9D5480468E46A31
:101DF00001F040FA204610BD10B5044601F05FFA2C
:101E00005020EFF3118180F31188BFF34F8FBFF3A0
:101E10006F8F0CB9CA480468E06A81F3118810BD5D
:101E20002DE9F04100260D460446202908D34FF441
:101E3000B062AFF22411AFF2141001F09DFE1F2525
:101E400001F0FEF9BE4F04B93C68E06CA8423FD0F7
:101E50003968854206D98C4207D03968C96AA942D7
:101E600002D902E08C4200D10126E16A884688420C
:101E700000D1E562E564A069002802DBC5F120001D
:101E8000A061B24D08EB8800616905EB80008142DA
:101E900015D1201DFEF7CAFF012120B93A6901FAC8
:101EA00008F082433A61E06A3A698140114339613E
:101EB00000EB800005EB8000211DFEF793FF3EB193
:101EC000A0494FF080500860BFF34F8FBFF36F8F72
:101ED000BDE8F04101F0CEB970B5994D286B10B155
:101EE0000120E86170BD0020E8612869974EB0FAD2
:101EF00080F0C0F11F0000EB800456F8240038B9D0
:101F000040F6F622AFF2F811AFF2E81001F034FE1D
:101F100006EB840000F10802416849684160914283
:101F200001D149684160C868286070BD70B5044639
:101F300001F086F9824D04B92C68201DFEF776FF6A
:101F400058B9E06A814A00EB800152F8211021B9AA
:101F500001218140286988432861A06A18B104F1F1
:101F60001800FEF763FF211D7748FEF73BFF01F0E5
:101F700081F9686928B101F063F900F010FE01F001
:101F800079F92868844213D1686990B1286B38B117
:101F900040F25762AFF28821AFF2782001F0ECFDF9
:101FA00068494FF080500860BFF34F8FBFF36F8FC9
:101FB00070BD6548A9680068884202D10020286089
:101FC00070BDBDE8704087E770B50025040007D1FB
:101FD00040F28162AFF2C821AFF2B82001F0CCFD2F
:101FE00059496069884205D1A06A2839884201D0E0
:101FF00000B90125284670BD70B504002BD0504DA6
:102000002868844231D001F01BF92046FFF7DCFF3D
:10201000E8B1201DFEF70AFFE06A01212A6981402C
:1020200011432961494900EB800001EB8000211D2B
:10203000FEF7D8FEE06A2968C96A884207D3414999
:102040004FF080500860BFF34F8FBFF36F8FBDE834
:10205000704001F00FB940F2AB62AFF24C31AFF219
:102060003C30BDE8704001F087BD70BD2DE9F04106
:102070000026040007D140F2E262AFF26C31AFF209
:102080005C3001F079FD01F01AF95020EFF3118571
:1020900080F31188BFF34F8FBFF36F8F2046FFF798
:1020A00093FFF0B1264F386B20B1274804F1180197
:1020B000283814E0E06A3968C96A884200D30126EA
:1020C000201DFEF7B3FEE06A01213A698140114309
:1020D00039611E4900EB800001EB8000211DFEF7F5
:1020E00081FE85F31188304666E4184E4FF0805427
:1020F000144D00F06BFD30680128FAD92C60BFF355
:102100004F8FBFF36F8FF4E71CB50D4800242C30C0
:10211000CDE90040234682220DA10F48FFF74EFC77
:10212000012803D100F06DFE01281BD0401C2BD1EB
:1021300040F28472AFF22841AFF2184002B00DE0D5
:102140003000002004ED00E0C4030020F400002073
:1021500049444C4500000000EB200008BDE8104059
:1021600001F00ABD502080F31188BFF34F8FBFF3F9
:102170006F8FFA484FF0FF31816201214161C460E5
:10218000BDE81C4001F01AB81CBD502080F3118836
:10219000BFF34F8FBFF36F8FF0490020486101F00C
:1021A00043B8EE48C068704710B501F088F8EB48B6
:1021B000C06810BDE9488068704710B510B104468A
:1021C0001CB10AE0E5480468FAE740F68C02AFF279
:1021D000C041AFF2B04001F0CFFC04F1340010BDBB
:1021E0002DE9F0471E4691460C4607000ED00546E5
:1021F00005F13400C4E90050E86A2061286BE06111
:10220000686CA060207B032803D00AE0D3480568EF
:10221000EEE7FFF736FDA86A08B102202073FFF74A
:10222000A2FC4FF00008E86CC4E90508052E01D0B7
:10223000267303E03846FFF7A4FD2073B9F1000FC1
:102240000AD00021286B01E0401C491C0278A52A15
:10225000FAD088082084DFE4A4F82080DCE42DE9AB
:10226000F0478146086892460C460025F8B1486858
:1022700001F1080640684860B04201D140684860FA
:10228000D0F80C80606842686260B24201D1516847
:102290006160606805EBC50109EB8101C7685346C1
:1022A00001223846FFF79CFF6D1C4745EAD12846BE
:1022B000B2E42DE9F04717460A46064600242025D9
:1022C000FFF7DFFCDFF89482D8F8080082423AD3A7
:1022D000DFF88C926D1E05EB850104EBC40009EB61
:1022E000810106EB80000122FFF7B9FF0444002DB5
:1022F000F0D104EBC40006EB800002224546D8F87A
:102300003410FFF7ACFF044404EBC40006EB80007C
:102310000222A96BFFF7A3FF044404EBC40006EB01
:10232000800004228F49FFF79AFF04448D4904EB93
:10233000C40006EB800003221431FFF790FF044431
:102340000FB100203860FFF70EFC204664E470B542
:102350000D46040007D140F60632AFF24C61AFF2F1
:102360003C6001F009FC7D48016820461831FEF709
:1023700045FD2846BDE8704001214FE42DE9F041BC
:1023800017460E46050007D140F61732AFF28061BE
:10239000AFF2706001F0F0FB704C206B38B940F682
:1023A0001B32AFF29461AFF2846001F0E5FB21686B
:1023B00046F000408861216828461831FEF712FD7A
:1023C0003846BDE8F041012128E470B514460E46B8
:1023D000050007D140F63132AFF2CC61AFF2BC60FC
:1023E00001F0CAFB5D48016828461831FEF7FAFC87
:1023F0000CB14FF0FF3621463046BDE870400DE489
:102400002DE9F041C068C4683CB940F66132AFF2D2
:102410000071AFF2F06001F0AFFB04F11800074665
:10242000FEF704FD4D4D286B012660B14D4839463D
:102430001438FEF7D7FCE06A2968C96A884212D9C5
:102440000120EE611CE4201DFEF7F0FCE06A2A6921
:1024500006FA00F111432961414900EB800001EBCC
:102460008000211DE5E700200AE470B53B4D0646DB
:102470000C46286B38B940F69932AFF26C71AFF266
:102480005C7001F079FB44F000403060F4683CB9C6
:1024900040F6A132AFF28871AFF2787001F06CFBB8
:1024A0003046FEF7C3FC201DFEF7C0FCE06A0126A3
:1024B0002A6906FA00F111432961294900EB8000DD
:1024C00001EB8000211DFEF78DFCE06A2968C96AD6
:1024D000884202D90120EE6170BD002070BD10B5A8
:1024E000040007D140F6C132AFF2DC71AFF2CC701C
:1024F00001F042FB1948016A2160C068606010BDAC
:1025000070B50D46040007D140F6CB32AFF600019E
:10251000AFF2F07001F030FB3DB940F6CC32AFF6CF
:102520001001AFF6000001F027FB00F089FE0B4A16
:10253000D06829684B1C0FD02368126A934202D0DE
:102540006268824210D96268801A88420CD2081AE6
:1025500028602046FFF7C3FF002406E0300000207B
:10256000F4000020B0030020012400F083FE204688
:1025700070BDFF490120C8617047002800D0806C01
:102580007047002800D081647047F94800687047A0
:10259000F748416919B1006B18B10020704701205C
:1025A00070470220704770B5040039D0F04DE06AE2
:1025B0002968C96A884233D2A069002804DB2868E8
:1025C000C06AC0F12000A061E06AEA4E00EB800022
:1025D000616906EB800081421FD1201DFEF726FCB9
:1025E000012150B9E06A00EB800256F8222022B99E
:1025F0002A6901FA00F082432A612868C06AE06211
:102600002A6981401143296100EB800006EB8000BC
:10261000211DBDE87040FEF7E5BB2868C06AE06296
:1026200070BD70B504004FF0000640D0D04D286852
:10263000844207D040F6C762AFF62C11AFF61C10EB
:1026400001F09AFA206D38B940F6C962AFF6401130
:10265000AFF6301001F090FA206D401E2065E26C5C
:10266000E16A914223D010BB201DFEF7DFFBC14978
:10267000012250B9E06A00EB800351F8233023B9FE
:102680002B6902FA00F083432B61E06CE062C0F139
:102690002000A061E06A2B6982401A432A6100EBA6
:1026A000800001EB8000211DFEF79CFB01263046D7
:1026B00070BD2DE9FF41002705460770AC488168D1
:1026C0000291806800EBC000800000F069FE060007
:1026D0004BD000220299FFF7ECFDCDE90207384606
:1026E0003AE000EBC00006EB8001087B01280FD028
:1026F00002280FD003280FD004280FD000244968E7
:10270000284601F077FB284601F098FB202109E0DC
:102710005224F4E74224F2E75324F0E74424EEE79E
:102720002954401C0F28FBD32F540544039800EB79
:10273000C00006EB80008268018CCDE900120369BD
:1027400022468DA1284601F023FA284601F076FBA7
:1027500005440398401C039002998842C1D304B0F9
:102760003046BDE8F04100F086BEBDE8FF818049FB
:1027700008680A688069D26A0968C2F120028A6121
:1027800070477B49086818B10868026D521C0265E1
:102790000868704770B50C46064600F051FD744D50
:1027A0002868406D80B92968012081F858005CB123
:1027B00001212046FFF732FA73494FF0805008603C
:1027C000BFF34F8FBFF36F8F00F054FD00F038FD63
:1027D0002868446D002034B116B12968486502E0CC
:1027E0002A68611E5165296881F8580000F042FD91
:1027F000204670BD2DE9F0411E4615468846074625
:1028000000F01EFD5A4C206890F85800022814D0A1
:102810002068416DB94341652168012081F8580065
:102820005EB101213046FFF7F9F957494FF080506A
:102830000860BFF34F8FBFF36F8F00F01BFD00F0F8
:10284000FFFC15B12068406D2860206890F85800A2
:1028500001280DD02068416D21EA0801416501255C
:102860002168002081F8580000F004FD28463BE470
:102870000025F5E72DE9F0411F4690460D4604007E
:102880004FF0010607D141F2FD02AFF67C31AFF601
:102890006C3001F071F900F0D3FC0FB1606D38605D
:1028A00094F85800022184F85810B8F1050F0ED2A0
:1028B000DFE808F00D03060C0A00616D294301E012
:1028C000616D491C616502E0022803D0656501283D
:1028D00002D02AE0002628E0201DFEF7A7FA244DAA
:1028E000E06A01212A69814011432961214900EBF5
:1028F000800001EB8000211DFEF774FAA06A38B158
:1029000041F23512AFF6F831AFF6E83001F034F9A4
:10291000E06A2968C96A884207D91B494FF080508C
:102920000860BFF34F8FBFF36F8F00F0A3FC3046FA
:1029300088E52DE9F0471F46DDF8209092460D46C8
:1029400004004FF0010807D141F26812AFF6404190
:10295000AFF6304001F010F900F0B1FC5020EFF379
:10296000118680F31188BFF34F8FBFF36F8F0DE097
:1029700030000020F4000020092563092575092591
:10298000750925750D0A000004ED00E00FB1606DBA
:10299000386094F85800022184F85810BAF1050FF5
:1029A0000ED2DFE80AF00D03060C0A00616D294320
:1029B00001E0616D491C616502E0022803D0656594
:1029C000012803D031E04FF000082EE0A06A38B1B2
:1029D00041F2AF12AFF6C841AFF6B84001F0CCF803
:1029E0008D4D286B012778B104F118018B48FEF753
:1029F000F9F9E06A2968C96A884216D9B9F1000F65
:102A000012D0C9F8007010E0201DFEF70FFAE06A3E
:102A10002A6907FA00F11143296100EB800180481F
:102A200000EB8100211DE2E7EF6186F3118840464B
:102A300011E42DE9F0418846040007D141F2E31288
:102A4000AFF63451AFF6245001F096F800F037FCA1
:102A50005020EFF3118780F31188BFF34F8FBFF33E
:102A60006F8F94F85800022184F85810616D491C4A
:102A7000616501282ED1A06A38B141F20922AFF672
:102A80007051AFF6605001F077F8634D286B012666
:102A900078B104F118016148FEF7A4F9E06A2968E9
:102AA000C96A884216D9B8F1000F12D0C8F8006080
:102AB00010E0201DFEF7BAF9E06A2A6906FA00F173
:102AC00011432961564900EB800001EB8000211D74
:102AD000E2E7EE6187F31188B4E410B558B104461B
:102AE00000F0AEFB94F85800022807D0002400F054
:102AF000C1FB204610BD48480468F1E7002084F877
:102B000058000124F3E72DE9F0470E46DDE909847A
:102B10001746824691009946089DA522206B01F038
:102B200023FA6FF00301206B01EB8701084420F0CA
:102B30000707780705D040F22B323AA13EA001F0FA
:102B40001BF800202218315C82F83410315C11B17E
:102B5000401C1028F6D3002684F84360202D00D3B3
:102B60001F25E562C4E91356201DFEF738F904F16C
:102B70001800FEF734F92461C5F120006462A061F9
:102B8000666584F858604A465146384600F0F9FABE
:102B90002060B8F1000F01D0C8F8004048E71E4897
:102BA000416B096829B1416BC968C968496881628C
:102BB00070474FF0FF31FAE710B50446006B00F0A4
:102BC0005AFC2046BDE8104000F055BC70B5134ECD
:102BD000114D14361CE0FFF754F8306820B1002482
:102BE000FEF7C1FFA4B901E00124F9E700F028FBDA
:102BF000F068C468201DFEF719F9A868401EA86097
:102C00006868401E686000F035FB2046FFF7D4FF7F
:102C100068680028DFD170BD300000209C030020D0
:102C2000F40000202E2E5C4672656552544F535CB2
:102C30007461736B732E63004572726F723A257301
:102C40002C25640D0A00000070B500244160F74D8A
:102C50000061914206D8D11A8269914206D2011DC3
:102C6000286907E09A4203D2994201D3012403E084
:102C7000011DE868FEF7C2F8204670BD2DE9FF4748
:102C80009946DDF830A090460D4606004FF000074B
:102C900005D14FF4D372E6A1EBA000F06DFFE34C39
:102CA000206880B1CDE900580296062D11DAFFF7B1
:102CB0006FFC02284FF0000309D00022694620680B
:102CC000FEF7D6F9074604B03846BDE8F08752460D
:102CD000F4E700234A466946FEF7C2FBF2E770B507
:102CE00086B0D24E53E00198002806DADDE90301F0
:102CF000029A90470198002849DB039C606910B153
:102D0000201DFEF793F805A800F04DF9054601983F
:102D10000A283CD2DFE800F00505053B2738050509
:102D20003B270298A169034601442A462046FFF743
:102D30008BFF00282BD0616A20468847E069012874
:102D400025D1002000900298A1690023421819465D
:102D50002046FFF793FFD0B940F22132B4A1BAA0C8
:102D600000F00AFF13E00298A06128B94FF44E72F8
:102D7000AFA1B5A000F000FFA0692B4641191A468B
:102D80002046FFF761FF02E0204600F074FB0023BD
:102D90001A4601A93068FEF770FA0028A3D106B0E0
:102DA00070BDA24CE068016839B1002139B1002042
:102DB00000F00BF9FFF793FFF4E70121F6E7C06895
:102DC0000068F5E710B500F03BFA984C2068A0B910
:102DD000A148FDF7F9FFA0481430FDF7F5FF9E4824
:102DE000E06014302061002210210520FEF770F809
:102DF000206010B199A1FEF7F4FCBDE8104000F08E
:102E000039BA1CB50024FFF7DDFF8848006868B1B7
:102E100086491F20091DCDE9000100234FF482726D
:102E200090A19248FEF7CAFD040005D140F233128A
:102E30007FA185A000F0A0FE20461CBD2DE9F04733
:102E40000746994616460D462C20DDF820A000F0D6
:102E5000A7FA040014D0B8464F46D1462DB94FF416
:102E6000C67283A188A000F087FEFFF7ABFF04F1D4
:102E70001801C4F8008081E8E002201DFDF7AFFFD3
:102E8000204622E710B5694C606828B94FF4E87213
:102E900067A16DA000F070FE606810BD10B5040061
:102EA00005D140F2D91262A167A000F065FEA069C9
:102EB00010BD10B5040005D140F2E3125CA162A080
:102EC00000F05AFE606810BD10B5040005D140F254
:102ED000ED1257A15CA000F04FFE206810BD10B5A8
:102EE000040005D140F2DA3251A157A000F044FEAF
:102EF00000F0A6F9606908B1012400E0002400F0A8
:102F0000B9F9204610BD10B5040005D140F2EF32EA
:102F100047A14DA000F030FE00F092F9246A00F0C5
:102F2000A9F9204610BD70B50D46040005D140F248
:102F3000FF323FA144A000F01FFE00F081F925629E
:102F4000BDE8704000F096B97FB56FF0010401AEA6
:102F5000009486E8070035481D4600232A46694646
:102F60000068FEF77DFA04B070BD2DE9FF412F4CDB
:102F700007469846206815460E4628B940F22B426F
:102F80002BA131A000F0F8FD4FF0FF30CDE9000794
:102F9000CDE902650023424669462068FEF768F8DD
:102FA00004B0BDE8F08170B50546FFF7FAF81F4E92
:102FB0000446B068844203D200F070F8012000E0BB
:102FC000002028602046B46070BDF8B50D46064666
:102FD000FEF757FE6846FFF7E6FF0446009810B17B
:102FE000FEF7C1FDF8BD1148ADB101690968D9B15D
:102FF0000025311B2A460068FEF714FCFEF7B3FDDE
:103000000028EFD124494FF080500860BFF34F8F64
:10301000BFF36F8FF8BDA642EBD8FEF7A4FD2146A3
:10302000304600F06EF8F8BD0125E2E76C000020A4
:103030002E2E5C4672656552544F535C74696D6503
:1030400072732E63000000004572726F723A25732E
:103050002C25640D0A000000D8030020546D725125
:1030600000000000546D722053766300A32D000809
:103070002E2E5C4672656552544F535C74696D65C3
:1030800072732E63000000004572726F723A2573EE
:103090002C25640D0A00000004ED00E0F8B52F4E69
:1030A00027E0C068C4680568201DFDF7BFFE616A9F
:1030B00020468847E06901281BD1A0692844A8421E
:1030C00006D924616060211DF068FDF797FE10E0CD
:1030D00000200346014600902A462046FFF7CEFD19
:1030E00038B940F29232AFF27801AFF2640000F0EA
:1030F00043FDF06801680029D3D13169C6E90310A6
:10310000F8BDF8B5054615480E46C068C068C468E5
:10311000201DFDF78BFEE069012818D1A0692B4620
:10312000411932462046FFF78FFD80B1002003464B
:10313000014600902A462046FFF7A0FD38B94FF41B
:103140000272AFF2D401AFF2C00000F015FD616A67
:1031500001B02046BDE8F040084700006C000020A8
:1031600069484068401C04D0F42268A172A000F0B5
:1031700003FD502080F31188BFF34F8FBFF36F8F93
:10318000FEE710B5031F4FF080741C601B1F21F079
:1031900001011960191F6C4B0B60143940380A602B
:1031A00010BD6A484FF47A710068B0FBF1F14FF03E
:1031B000E020491E41610721016170471CB5644947
:1031C00008780190FF20087008788DF800009DF8BD
:1031D00000004D4A00F0500010700720906007E09A
:1031E0009068401E90609DF8000040008DF800003F
:1031F0009DF800000006F3D4107A000200F4E060AD
:103200009060019808705348016841F470010160B2
:10321000016841F070410160FFF7C3FF002050607A
:10322000FCF7F4FF00201CBD37484068B0F57A7FFA
:1032300005D04FF4B57235A13FA000F09DBC70479A
:10324000502080F31188BFF34F8FBFF36F8F2E494B
:103250004868401C486001280BD13E481C38006873
:1032600010F0FF0F05D04FF4BD7228A132A000F07E
:1032700083BC704710B5244C606828B940F28112B5
:1032800022A12DA000F078FC6068401E606001D192
:1032900080F3118810BD10B5502080F31188BFF362
:1032A0004F8FBFF36F8FFEF701FC20B129494FF01C
:1032B00080501C390860002080F3118810BD10B5C3
:1032C000FCF7DAFF104C10280CD300F1E02090F846
:1032D000F0032178884205D24FF42A720BA116A080
:1032E00000F04AFC1B4814380068A16800F4E06054
:1032F000884207D9BDE810404FF42E7203A10EA0FA
:1033000000F03ABC10BD0000800000202E2E5C466C
:1033100072656552544F535C706F727461626C6574
:103320005C525644535C41524D5F434D335C706F69
:1033300072742E63000000004572726F723A25733A
:103340002C25640D0A0000006131000808000020EF
:1033500000E400E020ED00E030B5744900E01146E3
:103360000A688242FBD34B685C18844203D14068F0
:1033700018444860084643681C18944209D16B4CB5
:10338000103C2468A24209D052681A4442600A687C
:1033900012680260814200D0086030BD0460F9E725
:1033A0002DE9F04105460026FEF76BFC5F4F103F0C
:1033B000386808B900F098F8F86805424ED1002D39
:1033C0004CD0083568070BD005F00700C0F10800A5
:1033D0000544680704D0BF2255A15FA000F0CCFBD4
:1033E000002D3BD07868854238D85049084604689B
:1033F00001E0214604466068A84202D22068002805
:10340000F7D13868B846844228D00E682068086032
:1034100060680836401B10280ED96719780704D059
:10342000EC2243A14CA000F0A7FB6068401B786031
:1034300038466560FFF790FF6168D8F8040042469F
:10344000401AC8F80400D8F80830984200D29060BA
:10345000D8F80C0001430020C4E90001FEF783FB0B
:10346000700705D04FF4967231A13BA000F084FBA9
:103470003046BDE8F08170B500282BD02B4DA0F16F
:103480000804103D6068E968084205D14FF4A07255
:1034900027A131A000F070FB206828B140F2411252
:1034A00023A12DA000F068FB6068E968084211D0F4
:1034B0002268002A0ED188436060FEF7E2FB606854
:1034C0006968084468602046FFF746FFBDE8704021
:1034D000FEF749BB70BD1548103840687047134867
:1034E00010388068704770471F484FF4A04142076A
:1034F00006D0C01D1C4920F00700411AC1F5A041AB
:103500000A4A00230144C2E900030839103A21F0B5
:10351000070111604B600B600B1AC0E90013936048
:103520004FF000405360D060704700009C000020C6
:103530002E2E5C4672656552544F535C706F7274E8
:1035400061626C655C4D656D4D616E675C6865615F
:10355000705F342E630000004572726F723A2573FB
:103560002C25640D0A0000000004002010B5FFF7B0
:103570000FF8012803D0BDE81040FFF78CBE10BD46
:1035800010B50420FCF7EBFF2B482C492C4A0068AF
:10359000B0FBF1F3B0FBF1F14FF47A7041431370DB
:1035A000012050804FF0E020026942F002020261E7
:1035B0004161016941F00101016110BD70B54FF039
:1035C000E02500216C691E4AAB6912785043AA6954
:1035D0009A42FCD002D2A3EB020302E0A4EB020663
:1035E0003344194413468142F1D370BD70B504468B
:1035F000FEF7CEFF01280CD0114D6888844203D31A
:10360000B4FBF0F0FEF79CFB6888B4FBF0F100FB24
:1036100011444FF47A706043BDE87040CEE770B556
:10362000054600244FF47A7603E03046FFF7C6FFE4
:10363000641CAC42F9D370BD0800002040420F006A
:10364000A4000020704740490A885206FCD53E4A33
:10365000C1B2121D1180704770B5054686B00121B8
:1036600044F20400FDF7CDF94FF40070ADF81000FE
:1036700003248DF812401820344E8DF8130004A94D
:103680003046FCF7D6FF3015ADF8100004208DF859
:10369000130004A93046FCF7CCFF25208DF8140058
:1036A0008DF815408DF8164001208DF8170005A8FB
:1036B000FCF715FF0020ADF80400ADF80600ADF8EA
:1036C0000800ADF80C000C201F4CADF80A00009566
:1036D00069462046FDF714FA012240F225512046A2
:1036E000FDF78BFA01212046FDF77DFA06B070BD8B
:1036F00070B5154C40F225512046FDF735FB0028EA
:103700000ED02046FDF7C9FA114AC1B21088030451
:1037100006D444044FF0000306D50A2901D01380D3
:1037200070BD40F400400DE00D2909D0C0F30D0438
:10373000084D401C80B229551080C728EFD870BDB5
:1037400040F48040108070BD003801400008014006
:10375000A80000200054002038B501210820FDF702
:1037600050F92020ADF8000010208DF80300032050
:10377000104C8DF8020069462046FCF75AFF0121E3
:10378000ADF8001069462046FCF753FF0221ADF862
:10379000001069462046FCF74CFF20212046FCF72C
:1037A000B2FF01212046FCF7AEFF02212046FCF7C4
:1037B000AAFF38BD000C014010B58021AC4800F0D4
:1037C000DBFBAC490020088010BDAA49088828B15D
:1037D0004A88904204D10020088070470120704739
:1037E0004880FBE72DE9F0410E4605460024A24F34
:1037F0000CE015F8011B3846FDF74BFA402138461E
:10380000FDF7A8FA0028F9D0641CA4B2B442F0D3A2
:10381000BDE8F08170B514460D46064600F00EFB7B
:1038200081B23046FFF7DEFF0EE0FFF7CEFF40B972
:1038300029468F4800F0CCFA18B1FFF7BDFF0020F1
:1038400070BD0A20FFF7D2FE641EA4B2EDD20120A3
:1038500070BD30B589B00C460546FFF7ADFF224676
:1038600086A1684600F094F9C82288A16846FFF74F
:10387000D1FF002803D121462846FFF7B3FF09B046
:1038800030BD10B50446FFF7A0FF58B980A17848B5
:1038900000F09EFA30B13A2100F090FA002800D0F2
:1038A000401C10BD0520FFF7A1FE2046641EA4B2F7
:1038B000E9D210BD38B501210820FDF7A2F810208B
:1038C0008DF803000220ADF800000320724C8DF843
:1038D000020069462046FCF7ACFE00220221204689
:1038E000FCF715FFFA20FFF781FE01220221204696
:1038F000FCF70DFF4FF4FA742046FFF777FEFFF751
:103900005BFF66A000F038F902E02046FFF76EFE8C
:10391000C82264A164A0FFF77DFF0028F5D164A050
:1039200000F02AF902E02046FFF760FEC8225DA100
:1039300062A0FFF76FFF0028F5D164A000F01CF92A
:1039400002E02046FFF752FEC82256A162A0FFF710
:1039500061FF0028F5D164A000F00EF902E02046D6
:10396000FFF744FEC82262A163A0FFF753FF0028BF
:10397000F5D16BA000F000F902E02046FFF736FE1B
:10398000C8226AA16BA0FFF745FF0028F5D173A0FC
:1039900000F0F2F838BDF0B5074687B001210420E9
:1039A000FDF72FF801214804FDF734F818208DF8B1
:1039B000130004246E4EADF8104003258DF812500C
:1039C00004A93046FCF735FE8DF813400820ADF809
:1039D00010008DF8125004A93046FCF72AFE00248E
:1039E0000C20ADF80A00244DADF806400097ADF864
:1039F0000C40ADF80840ADF8044069462846FDF794
:103A00007FF801212846FDF7EEF8012240F225510A
:103A10002846FDF7F2F826208DF8140001208DF8D5
:103A200017008DF815408DF8164005A8FCF757FDD6
:103A300007B0F0BD10B5104C40F225512046FDF7FF
:103A400093F9002813D00B4A1088802801D3002056
:103A500010800948001D0088054B11885854491CE6
:103A600011802046BDE810402021FDF77AB910BD35
:103A7000C8540020B00000200044004041542B43B3
:103A8000495053454E443D25640D0A003E00000058
:103A90004950442C00000000000C014041540D0A24
:103AA000000000004F4B000041540D0A0D000000C3
:103AB00043574D4F44450D0A0000000041542B432D
:103AC000574D4F44453D310D0A00000041542B43F2
:103AD00057444843500D0A0041542B435744484330
:103AE000503D312C310D0A0043574A41500D0A0018
:103AF000474F54204950000041542B43574A4150EE
:103B00003D224E616E6662756E616E222C2277795F
:103B1000747377313233333231220D0A00000000E2
:103B200043495053544152540D0A0000434F4E4EE6
:103B30004543540041542B43495053544152543D42
:103B400022544350222C22382E3133302E36352E3B
:103B50003230222C313838330D0A000045535038AA
:103B600032363620496E6974204F4B0D0A00000032
:103B700000080140704700000FB4044910B503AAC3
:103B8000029800F0D3FA10BC5DF814FBAC000020E2
:103B90000FB41CB5074B06AA7B44694600900598F4
:103BA00000F095FA0020694600F0A4FA1CBC5DF80C
:103BB00014FB00005905000070B50C460546012AAB
:103BC00005D02878800600D5EA69002302E00123A9
:103BD00005E05B1C934202D2E05C0028F9D1A869A1
:103BE000E618C01AA861286A184428622846AFF36C
:103BF000008004E0D5E9012114F8010B9047B4429C
:103C0000F8D32846AFF3008070BD00002DE9F041E5
:103C10000646002410687529314616A510D0AFF36A
:103C20000080002802DA404213A507E031688A07C5
:103C300001D512A502E0490704D511A5012401E030
:103C4000AFF3008000210A2206F1240709E0B0FB4F
:103C5000F2FCB0FBF2F302FB1C0030307854184643
:103C6000491C0028F3D123462A463046BDE8F041DE
:103C700000F0CFB9000000002D0000002B00000074
:103C8000200000002DE9F05F894604464FF0000A4D
:103C9000DFF824B1FB44C0F820A02046E168884743
:103CA00000287DD0252806D0D4E901219047206A3C
:103CB000401C2062F1E700255F462046E168884706
:103CC0002028064607DB312E05D2B81910F8200C43
:103CD00008B10543F1E7A80701D525F00405C4F8AC
:103CE0001CA00027C4F818A02A2E09D0304600F0E6
:103CF00065FA38B304EB8708303EC8F8186019E05D
:103D000059F8041B204604EB87029161E16888475B
:103D1000012F064618D1E069002820DA25F0200599
:103D20001DE0D8F8180000EB800006EB40003038AA
:103D3000C8F818002046E1688847064600F03EFAB9
:103D40000028EED1012F0AD02E2E08D12046E1689E
:103D500088477F1C0646022F45F02005C4DBA0697A
:103D6000002803DA404245F00105A061E80701D0D0
:103D700025F01005A6B1A6F14100192802D8203679
:103D800045F400654A463146204625604D46FCF71D
:103D900009FA60B1012807D0ED1D25F0070000E009
:103DA00007E000F1080978E705F1040975E73046F6
:103DB0007AE7206ABDE8F09F32050000401ECAB2D3
:103DC00010F8011F8A4202D00029F9D10020704763
:103DD00030B505460B462A4613F8014B12F8010B85
:103DE00008B1A042F8D01CB1002802D06D1CF1E748
:103DF000284630BD40EA0103024630B59B0710D18A
:103E00004FF0013400E008C208C91D1B9D4315EAAC
:103E1000C41FF8D013F0FF0102F8011B0DD01B0ADC
:103E2000F8E711F8013B002B02F8013B05D011F82F
:103E3000013B002B02F8013BF3D130BD10B5431C10
:103E400002E010F8011B71B18107FAD14FF0013285
:103E500002C88C1A8C4314EAC211F9D0C01A0A069F
:103E600003D0C01E10BDC01A10BD0A0401D0801EB0
:103E700010BD0902FCD0401E10BD032A40F2308064
:103E800010F0030C00F0158011F8013BBCF1020F9B
:103E9000624498BF11F801CB00F8013B38BF11F81C
:103EA000013BA2F1040298BF00F801CB38BF00F833
:103EB000013B11F0030300F02580083AC0F00880B0
:103EC00051F8043B083A51F804CBA0E80810F5E794
:103ED000121D5CBF51F8043B40F8043BAFF3008077
:103EE000D20724BF11F8013B11F801CB48BF11F8EC
:103EF000012B24BF00F8013B00F801CB48BF00F8BC
:103F0000012B704710B5203AC0F00B80B1E8185073
:103F1000203AA0E81850B1E81850A0E81850BFF4B3
:103F2000F5AF5FEA027C24BFB1E81850A0E8185052
:103F300044BF18C918C0BDE810405FEA827C24BFA6
:103F400051F8043B40F8043B08BF7047D20728BF34
:103F500031F8023B48BF11F8012B28BF20F8023B83
:103F600048BF00F8012B704702F0FF0343EA032229
:103F700042EA024200F002B84FF000020429C0F009
:103F8000128010F0030C00F01B80CCF1040CBCF18B
:103F9000020F18BF00F8012BA8BF20F8022BA1EBDD
:103FA0000C0100F00DB85FEAC17C24BF00F8012BC2
:103FB00000F8012B48BF00F8012B70474FF00002BA
:103FC00000B5134694469646203922BFA0E80C500F
:103FD000A0E80C50B1F12001BFF4F7AF090728BFEA
:103FE000A0E80C5048BF0CC05DF804EB890028BF66
:103FF00040F8042B08BF704748BF20F8022B11F08F
:10400000804F18BF00F8012B70477047704770470A
:1040100070472DE9F0470D4699469246044600F157
:1040200024080168880604D5E06921F010012160A8
:1040300000E00120A84201DD471B00E00027A16944
:104040007A1902EB0900081AA0612078C00602D490
:104050002046AFF30080002608E0D4E901211AF8D9
:1040600006009047206A401C761C20624E45F4DB17
:104070002078C0060AD52046AFF3008006E0D4E9D8
:10408000012130209047206A401C2062381EA7F191
:104090000107F4DC07E0D4E9012118F80500904796
:1040A000206A401C2062281EA5F10105F3DC204691
:1040B000AFF300802078000602D50220BDE8F0872B
:1040C0000120FBE701694A1C02610878704700B5CE
:1040D0008FB0CDE901310021059105497944CDE941
:1040E000031011466846FFF7CDFD0FB000BD00007C
:1040F000E5FFFFFF0A6802F8010B0A60704710B580
:10410000436913B1AFF3008001E0FFF755FD0120D3
:1041100010BD127800F124010A7000224A700122B9
:10412000EDE711684FF0FF32E9E70000074B70B58B
:104130000D467B44FFF7CBFF0446284600F00CF801
:1041400010B14FF0FF3070BD204670BD11F5FFFF7C
:104150000048704748550020007B00F08000704701
:104160007546FFF7F5FFAE4605006946534620F059
:104170000700854618B020B5FCF79AF9BDE8204045
:104180004FF000064FF000074FF000084FF0000B13
:1041900021F00701AC46ACE8C009ACE8C009ACE8C6
:1041A000C009ACE8C0098D46704710B50446AFF3AE
:1041B00000802046BDE81040FCF70FB830380A28D0
:1041C00001D2012070470020704704000008000061
:1041D000000000000002000100001000FC41000887
:1041E00000000020B40000006C010008B04200088C
:1041F000B4000020F45A000088010008000000000C
:104200000000000000A24A040000000000000000BE
:104210000102030406070809020406080000000062
:10422000010203040102030406070809000000005C
:10423000000000000000000000000000000000007E
:10424000000000000000000000000000000000006E
:10425000000000000000000000000000000000005E
:10426000000000000000000000000000000000004E
:10427000000000000000000000000000000000003E
:10428000AAAAAAAA00000000000000000000000086
:10429000000000000000000000000000000000001E
:1042A000000000000000000000000000000000000E
:0400000508000131BD
:00000001FF
